:020000040000FA
:060000000A128A1110280B
:10000800FE00030E83120313A4000A08A5007F084C
:10001800A6000A128A119B2D0A128A11132883122C
:100028000313D401D501D601D701D801D901DA01CA
:10003800DB0183010A128A11322D8312031333085C
:100048008039FF007F08BD003308B8003807FF007B
:100058007F08C300B21F31283228332843144308CD
:100068000319372838284728430A031D3C283D2808
:1000780045280030B3000030B2000030B100003035
:10008800B000B2174F280030B3000030B200003083
:10009800B1000030B00037088039FF007F08BD0686
:1000A8003708B8003807FF007F08C200B61F5D2870
:1000B8005E285F28421442080319632864287328BD
:1000C800420A031D6828692871280030B7000030EB
:1000D800B6000030B5000030B400B6177B280030F9
:1000E800B7000030B6000030B5000030B400420858
:1000F80003197F28802885284308031D842885281C
:100108008E280030B3000030B2000030B10000305B
:10011800B000812B3008FF007F08A70036080A12BC
:100128008A11FC250A128A11831203132808C900B0
:100138002708C8004808B800B901BA01BB013B0844
:10014800C1003A08C0003908BF003808BE00490895
:10015800B800B901BA01BB013B08C7003A08C6009C
:100168003908C5003808C4003108FF007F08A70017
:1001780035080A128A11FC250A128A118312031300
:100188002808C9002708C8004808B800B901BA01FA
:10019800BB013808BE07390803110318013E0319CB
:1001A800D628BF073A0803110318013E0319DD28B2
:1001B800C0073B0803110318013E0319E428C107CF
:1001C8004908B800B901BA01BB013808C4073908A1
:1001D80003110318013E0319F228C5073A08031151
:1001E8000318013E0319F928C6073B080311031831
:1001F800013E03190029C7073208FF007F08A7003E
:1002080034080A128A11FC250A128A118312031370
:100218002808C9002708C8004808B800B901BA0169
:10022800BB013808BE07390803110318013E03193A
:100238001E29BF073A0803110318013E031925298F
:10024800C0073B0803110318013E03192C29C107F5
:100258004908B800B901BA01BB013808C407390810
:1002680003110318013E03193A29C5073A08031177
:100278000318013E03194129C6073B080311031857
:10028800013E03194829C7070830B8000310BE0DFE
:10029800BF0DC00DC10DB80B4A293108FF007F08FA
:1002A800A70034080A128A11FC250A128A1183123F
:1002B80003132808C9002708C8004808B8004908D7
:1002C800B900BA01BB013808BE0739080311031881
:1002D800013E03197029BF073A0803110318013EAC
:1002E80003197729C0073B0803110318013E0319B6
:1002F8007E29C1073008FF007F08A70035080A12C9
:100308008A11FC250A128A11831203132808C900CE
:100318002708C8004808B8004908B900BA01BB0155
:100328003808BE07390803110318013E03199D292F
:10033800BF073A0803110318013E0319A429C0078F
:100348003B0803110318013E0319AB29C107083004
:10035800B8000310BE0DBF0DC00DC10DB80BAD29FF
:100368003008FF007F08A70034080A128A11FC250C
:100378000A128A11831203132808C9002708C80023
:100388004808B8004908B900BA01BB013808BE07D7
:10039800390803110318013E0319D329BF073A0886
:1003A80003110318013E0319DA29C0073B0803119A
:1003B8000318013E0319E129C1073108FF007F082E
:1003C800A70036080A128A11FC250A128A1183121C
:1003D80003132808C9002708C8004808B8004908B6
:1003E800B900BA01BB013808C4073908031103185A
:1003F800013E0319002AC5073A0803110318013EF4
:100408000319072AC6073B0803110318013E0319FD
:100418000E2AC7073208FF007F08A70035080A120E
:100428008A11FC250A128A11831203132808C900AD
:100438002708C8004808B8004908B900BA01BB0134
:100448003808C407390803110318013E03192D2A77
:10045800C5073A0803110318013E0319342AC607D1
:100468003B0803110318013E03193B2AC70732084A
:10047800FF007F08A70036080A128A11FC250A1215
:100488008A11831203132808C9002708C8004808DE
:10049800B8004908B900BA01BB0108300310B80D0B
:1004A800B90DBA0DBB0DFF3E031D522A3808C4070B
:1004B800390803110318013E0319632AC5073A08CE
:1004C80003110318013E03196A2AC6073B080311E2
:1004D8000318013E0319712AC7073E08B8003F08F0
:1004E800B9004008BA004108BB0018300310BB0C23
:1004F800BA0CB90CB80CFF3E031D7A2A3808C40799
:10050800390803110318013E03198B2AC5073A0855
:1005180003110318013E0319922AC6073B08031169
:100528000318013E0319992AC7070830B8000310B9
:10053800BE0DBF0DC00DC10DB80B9B2A4308420765
:10054800B800B901B90D3808823EC8003908031847
:10055800013EFF3EC900CD2A0130B8000310C40D8A
:10056800C50DC60DC70DB80BB22AC11FBC2ABD2ABE
:10057800BE2A44140130B8000310BE0DBF0DC00DD3
:10058800C10DB80BC02AFF30C8070318C90AFF30CD
:10059800C907C61FD02AD12AB02AC201C11FD52A2D
:1005A800D62AF22AFF303E05B800FF303F05B900D1
:1005B800FF304005BA007F304105BB003B083A04D4
:1005C800390438040319E92AEA2AED2AC201C20AC1
:1005D800F22A441CF02AF12AF22AEA2A42080319CC
:1005E800F62AF72A282B0130C407003003180130F7
:1005F800C507003003180130C60700300318013062
:10060800C707471C082B092B282B4408B8004508A6
:10061800B9004608BA004708BB000130BC003B0DD2
:10062800BB0CBA0CB90CB80CBC0B132B3B08C7009D
:100638003A08C6003908C5003808C4000130C807A0
:100648000318C90A0030C9074908803AFF008030FA
:100658007F02031D312BFF304802031C342B352B3E
:10066800402B7F3083120313C7008030C600003050
:10067800C5000030C400752B831203134908803A63
:10068800FF0080307F02031D4B2B01304802031806
:100698004E2B4F2B5B2B003083120313C700003007
:1006A800C6000030C5000030C400BD01752B8312A0
:1006B80003134808FF007F08C300FF30C405FF305C
:1006C800C5057F30C6050030C705431C6C2B6D2B54
:1006D8006E2BC6174308B8000310380CFF007F08BC
:1006E800C7003D08FF007F08C7044708B300460855
:1006F800B2004508B1004408B0000800F8007808C6
:100708000319872B882B9C2BF31F8B2B8C2B9C2B53
:100718007009FA007109FB007209FC007309FD00F9
:10072800FA0A0319FB0A0319FC0A0319FD0AA42B88
:100738007308FD007208FC007108FB007008FA00DD
:100748007308720471047004031DAB2BAC2BB52B1A
:100758000030F3000030F2000030F1000030F0000B
:100768003B2C9630FF007F08F900C72B0130FF00B3
:100778007F08F90701300310FD0CFC0CFB0CFA0C88
:10078800FF3E031DBF2BFE307D05031DCC2BCD2B5B
:10079800BA2BE92B0130FF007F08F9070130FA076F
:1007A800003003180130FB07003003180130FC0744
:1007B800003003180130FD0701300310FD0CFC0C5C
:1007C800FB0CFA0CFF3E031DE12BFF307D05031DDA
:1007D800EE2BEF2BCE2BFB2B0130F9020130F4006E
:1007E8000310FA0DFB0DFC0DFD0DF40BF42BFC1B97
:1007F800FE2BFF2B052C023079020318042C052C44
:10080800F02B7918082C092C112CFF30FA05FF3031
:10081800FB057F30FC05FF30FD050310F90C790856
:10082800F400F501F601F70118300310F40DF50D89
:10083800F60DF70DFF3E031D192C7408FA04750810
:10084800FB047608FC047708FD04780803192D2CAE
:100858002E2C332CF31F312C322C332CFD177D0812
:10086800F3007C08F2007B08F1007A08F000080029
:100878000310831203134C0D4D0DFF007F08D300A6
:100888005308031D482C492C522C0030CD00003051
:10089800CC000030CB000030CA00B72C4A08CE008C
:1008A8004B08CF004C08D0004D08D1001F30031072
:1008B800D10CD00CCF0CCE0CFF3E031D5B2C4E0888
:1008C800FF007F08D200CC17FF30CA05FF30CB05E8
:1008D800FF30CC050030CD059630D302D31F752CE0
:1008E800762C902C5308803A973E03187C2C7D2C4C
:1008F8007E2C492C01300310CD0CCC0CCB0CCA0C2F
:10090800FF3E031D7F2C0130FF007F08D307031D26
:100918008E2C8F2C7E2CA72C20305302031C952C58
:10092800962CA22C492C0130CE000310CA0DCB0DF9
:10093800CC0DCD0DCE0B992C0130D3025308031DDD
:10094800A62CA72C972C52080319AB2CAC2CB72C2F
:10095800CA09CB09CC09CD09CA0A0319CB0A03195C
:10096800CC0A0319CD0A08000310720D730DFF009D
:100978007F08F9007908031DC22CC32CCC2C003049
:10098800F3000030F2000030F1000030F000312DAB
:100998007008F4007108F5007208F6007308F70093
:1009A8001F300310F70CF60CF50CF40CFF3E031D7A
:1009B800D52C7408FF007F08F800F217FF30F00507
:1009C800FF30F105FF30F2050030F3059630F902EB
:1009D800F91FEF2CF02C0A2D7908803A973E03185E
:1009E800F62CF72CF82CC32C01300310F30CF20C66
:1009F800F10CF00CFF3E031DF92C0130FF007F08BD
:100A0800F907031D082D092DF82C212D2030790216
:100A1800031C0F2D102D1C2DC32C0130F4000310C6
:100A2800F00DF10DF20DF30DF40B132D0130F90259
:100A38007908031D202D212D112D78080319252D46
:100A4800262D312DF009F109F209F309F00A0319ED
:100A5800F10A0319F20A0319F30A08000A128A11A3
:100A680025260A128A110A128A1138260A128A11B0
:100A78000A128A1147260A128A118316031386015D
:100A88008312031386019F145A0886005708B7007B
:100A98005608B6005508B5005408B4004030B300F5
:100AA8000030B2000030B1000030B0000A128A11E4
:100AB80021200A128A11831203133308CD00320849
:100AC800CC003108CB003008CA000A128A113C2435
:100AD8000A128A11831203134B08DD004A08DC004E
:100AE80000305D02193003195C0203187C2D7D2D3E
:100AF800802D01308800482D00305D02193003191F
:100B08005C02031C882D892D952D00305D0225304F
:100B180003195C020318912D922D952D033088003E
:100B2800482D07308800482D0A128A1110280C1FFA
:100B38009E2D9F2DCD2D1E08A000A101A201A3016D
:100B48002308F3002208F2002108F1002008F00031
:100B580000300A128A1182230A128A11730883123A
:100B68000313D7007208D6007108D5007008D400A6
:100B78001E08A000A1012008DA002108DB001D30B2
:100B880083120313A000A00BC72D831203130C13A9
:100B98009F148C1DD02DD12DF32D83160313141CF7
:100BA800D62DD72DE02D831203131308A000A10121
:100BB8002008D8002108D90083125708F3005608E6
:100BC800F2005508F1005408F0000A128A11B824FE
:100BD8000A128A1170088312031393008C112608D5
:100BE800FF0025088A00240E8300FE0E7E0E0900F1
:100BF80083120313AF00AB01AC012708A900AA01B7
:100C08002908AD002A08AE002F1C0B2E0C2E122E20
:100C18002D08AB070318AC0A2E08AC0701300310E7
:100C2800AD0DAE0DFF3E031D132E0310AF0C2F08A4
:100C3800031D1F2E202E082E2C08A8002B08A70005
:100C48000800831603138C15831203138C11831663
:100C58000313871507128716243083120313940091
:100C680083160313940108008B170B1783160313BD
:100C78008C160C160C178130831203139F008316F1
:100C880003139F01080003308316031788008901A6
:100C9800013083160313850088018312031388012A
:020CA800080042
:04400E00D723FF3F76
:00000001FF
