:020000040000FA
:060000000A128A1110280B
:10000800FE00030EF9000A08FA00831203137F08A2
:10001800FB000A128A1171280A128A111328F001AA
:10002800F101F201F301F401F501F6018312031362
:10003800A001A101A201A30183010A128A112428A7
:100048000A128A11B8200A128A110A128A11A820E3
:100058000A128A11193083120313A400A40B322840
:1000680035280A128A11C6200A128A11831203132C
:100078009F148316031386018312031386017408E1
:1000880086000310740DF000750DF1000030710248
:1000980019300319700203185228532856280130C2
:1000A80088003D2800307102193003197002031CC2
:1000B8005E285F286B280030710225300319700212
:1000C8000318672868286B28033088003D28073004
:1000D80088003D280A128A1110280C1F74287528D8
:1000E80088281E08FF007F08F6001E08F700F801A0
:1000F8007708F4007808F5002130F700F70B82281C
:10010800831203130C139F148C1D8B288C289F2893
:1001180083160313141C912892289B288312031317
:100128001308F700F8017708A0007808A100740800
:10013800831293008C117B08FF007A088A00790EDD
:100148008300FE0E7E0E090083160313871587169B
:1001580024308312031394008316031394018C151F
:10016800831203138C1108000330831603178800C9
:100178008901213083160313850088018312031334
:10018800880108008B170B178130831203139F0017
:0C019800831603139F018C160C1708003F
:04400E00D723FF3F76
:00000001FF
