:020000040000FA
:060000000A128A1110280B
:10000800FE00030E83120313A4000A08A5007F084C
:10001800A6000A128A111F2D0A128A1113288312A8
:100028000313D401D501D601D701D801D901830121
:100038000A128A11B62C8312031333088039FF0081
:100048007F08BD003308B8003807FF007F08C300E9
:10005800B21F2F28302831284314430803193528A4
:1000680036284528430A031D3A283B2843280030F0
:10007800B3000030B2000030B1000030B000B21759
:100088004D280030B3000030B2000030B10000301D
:10009800B00037088039FF007F08BD063708B80070
:1000A8003807FF007F08C200B61F5B285C285D2860
:1000B800421442080319612862287128420A031D64
:1000C800662867286F280030B7000030B600003077
:1000D800B5000030B400B61779280030B7000030FA
:1000E800B6000030B5000030B400420803197D287E
:1000F8007E2883284308031D822883288C28003003
:10010800B3000030B2000030B1000030B0007F2BE7
:100118003008FF007F08A70036080A128A115A25FE
:100128000A128A11831203132808C9002708C80075
:100138004808B800B901BA01BB013B08C1003A0838
:10014800C0003908BF003808BE004908B800B90126
:10015800BA01BB013B08C7003A08C6003908C50008
:100168003808C4003108FF007F08A70035080A12C4
:100178008A115A250A128A11831203132808C90002
:100188002708C8004808B800B901BA01BB013808F7
:10019800BE07390803110318013E0319D428BF0705
:1001A8003A0803110318013E0319DB28C0073B086E
:1001B80003110318013E0319E228C1074908B800D2
:1001C800B901BA01BB013808C4073908031103187B
:1001D800013E0319F028C5073A0803110318013E28
:1001E8000319F728C6073B0803110318013E031932
:1001F800FE28C7073208FF007F08A70034080A1244
:100208008A115A250A128A11831203132808C90071
:100218002708C8004808B800B901BA01BB01380866
:10022800BE07390803110318013E03191C29BF072B
:100238003A0803110318013E03192329C0073B0894
:1002480003110318013E03192A29C1074908B800F8
:10025800B901BA01BB013808C407390803110318EA
:10026800013E03193829C5073A0803110318013E4E
:1002780003193F29C6073B0803110318013E031958
:100288004629C7070830B8000310BE0DBF0DC00DC2
:10029800C10DB80B48293108FF007F08A7003408B2
:1002A8000A128A115A250A128A118312031328087E
:1002B800C9002708C8004808B8004908B900BA01A9
:1002C800BB013808BE07390803110318013E03199A
:1002D8006E29BF073A0803110318013E031975294F
:1002E800C0073B0803110318013E03197C29C10705
:1002F8003008FF007F08A70035080A128A115A251E
:100308000A128A11831203132808C9002708C80093
:100318004808B8004908B900BA01BB013808BE0747
:10032800390803110318013E03199B29BF073A082E
:1003380003110318013E0319A229C0073B08031142
:100348000318013E0319A929C1070830B800031092
:10035800BE0DBF0DC00DC10DB80BAB293008FF0095
:100368007F08A70034080A128A115A250A128A112E
:10037800831203132808C9002708C8004808B800D2
:100388004908B900BA01BB013808BE07390803118A
:100398000318013E0319D129BF073A0803110318AE
:1003A800013E0319D829C0073B0803110318013E71
:1003B8000319DF29C1073108FF007F08A7003608A5
:1003C8000A128A115A250A128A118312031328085D
:1003D800C9002708C8004808B8004908B900BA0188
:1003E800BB013808C407390803110318013E031973
:1003F800FE29C5073A0803110318013E0319052A07
:10040800C6073B0803110318013E03190C2AC70746
:100418003208FF007F08A70035080A128A115A25FA
:100428000A128A11831203132808C9002708C80072
:100438004808B8004908B900BA01BB013808C40720
:10044800390803110318013E03192B2AC5073A0876
:1004580003110318013E0319322AC6073B0803118A
:100468000318013E0319392AC7073208FF007F081D
:10047800A70036080A128A115A250A128A1183120D
:1004880003132808C9002708C8004808B800490805
:10049800B900BA01BB0108300310B80DB90DBA0D87
:1004A800BB0DFF3E031D502A3808C4073908031145
:1004B8000318013E0319612AC5073A0803110318F6
:1004C800013E0319682AC6073B0803110318013EB9
:1004D80003196F2AC7073E08B8003F08B90040084B
:1004E800BA004108BB0018300310BB0CBA0CB90C99
:1004F800B80CFF3E031D782A3808C40739080311D1
:100508000318013E0319892AC5073A08031103187D
:10051800013E0319902AC6073B0803110318013E40
:100528000319972AC7070830B8000310BE0DBF0D7E
:10053800C00DC10DB80B992A43084207B800B9018C
:10054800B90D3808823EC80039080318013EFF3E3D
:10055800C900CB2A0130B8000310C40DC50DC60D63
:10056800C70DB80BB02AC11FBA2ABB2ABC2A44142B
:100578000130B8000310BE0DBF0DC00DC10DB80B82
:10058800BE2AFF30C8070318C90AFF30C907C61FAB
:10059800CE2ACF2AAE2AC201C11FD32AD42AF02AD2
:1005A800FF303E05B800FF303F05B900FF30400579
:1005B800BA007F304105BB003B083A0439043804CF
:1005C8000319E72AE82AEB2AC201C20AF02A441CC6
:1005D800EE2AEF2AF02AE82A42080319F42AF52A13
:1005E800262B0130C407003003180130C50700303E
:1005F80003180130C607003003180130C707471C2D
:10060800062B072B262B4408B8004508B9004608D6
:10061800BA004708BB000130BC003B0DBB0CBA0C4C
:10062800B90CB80CBC0B112B3B08C7003A08C60024
:100638003908C5003808C4000130C8070318C90ABA
:100648000030C9074908803AFF0080307F02031D47
:100658002F2BFF304802031C322B332B3E2B7F30CD
:1006680083120313C7008030C6000030C500003075
:10067800C400732B831203134908803AFF008030AB
:100688007F02031D492B0130480203184C2B4D2BC8
:10069800592B003083120313C7000030C600003006
:1006A800C5000030C400BD01732B83120313480832
:1006B800FF007F08C300FF30C405FF30C5057F3049
:1006C800C6050030C705431C6A2B6B2B6C2BC6175D
:1006D8004308B8000310380CFF007F08C7003D0826
:1006E800FF007F08C7044708B3004608B200450862
:1006F800B1004408B0000800F80078080319852BF9
:10070800862B9A2BF31F892B8A2B9A2B7009FA00B8
:100718007109FB007209FC007309FD00FA0A03194C
:10072800FB0A0319FC0A0319FD0AA22B7308FD0032
:100738007208FC007108FB007008FA007308720464
:1007480071047004031DA92BAA2BB32B0030F300EE
:100758000030F2000030F1000030F000392C963003
:10076800FF007F08F900C52B0130FF007F08F9075B
:1007780001300310FD0CFC0CFB0CFA0CFF3E031DB2
:10078800BD2BFE307D05031DCA2BCB2BB82BE72BC9
:100798000130FF007F08F9070130FA07003003181D
:1007A8000130FB07003003180130FC070030031844
:1007B8000130FD0701300310FD0CFC0CFB0CFA0C9A
:1007C800FF3E031DDF2BFF307D05031DEC2BED2BBA
:1007D800CC2BF92B0130F9020130F4000310FA0D8B
:1007E800FB0DFC0DFD0DF40BF22BFC1BFC2BFD2B64
:1007F800032C023079020318022C032CEE2B7918F3
:10080800062C072C0F2CFF30FA05FF30FB057F3034
:10081800FC05FF30FD050310F90C7908F400F5011B
:10082800F601F70118300310F40DF50DF60DF70D6C
:10083800FF3E031D172C7408FA047508FB0476089C
:10084800FC047708FD04780803192B2C2C2C312C78
:10085800F31F2F2C302C312CFD177D08F3007C085A
:10086800F2007B08F1007A08F000080003108312F8
:1008780003134C0D4D0DFF007F08D3005308031DD3
:10088800462C472C502C0030CD000030CC000030D6
:10089800CB000030CA00B52C4A08CE004B08CF0068
:1008A8004C08D0004D08D1001F300310D10CD00CDB
:1008B800CF0CCE0CFF3E031D592C4E08FF007F08BD
:1008C800D200CC17FF30CA05FF30CB05FF30CC056E
:1008D8000030CD059630D302D31F732C742C8E2C88
:1008E8005308803A973E03187A2C7B2C7C2C472C93
:1008F80001300310CD0CCC0CCB0CCA0CFF3E031DF1
:100908007D2C0130FF007F08D307031D8C2C8D2C14
:100918007C2CA52C20305302031C932C942CA02C47
:10092800472C0130CE000310CA0DCB0DCC0DCD0DD8
:10093800CE0B972C0130D3025308031DA42CA52CF1
:10094800952C52080319A92CAA2CB52CCA09CB0935
:10095800CC09CD09CA0A0319CB0A0319CC0A031911
:10096800CD0A08000A128A1183250A128A110A126E
:100978008A1196250A128A110A128A11A5250A12C5
:100988008A118316031386018312031386019F14A9
:10099800580886005708B7005608B6005508B5002D
:1009A8005408B4004030B3000030B2000030B10049
:1009B8000030B0000A128A111F200A128A1183120D
:1009C80003133308CD003208CC003108CB003008BF
:1009D800CA000A128A113A240A128A1183120313CE
:1009E8004B08DB004A08DA0000305B0219300319B3
:1009F8005A020318002D012D042D01308800CC2C3B
:100A080000305B02193003195A02031C0C2D0D2DFE
:100A1800192D00305B02253003195A020318152DD1
:100A2800162D192D03308800CC2C07308800CC2CCB
:100A38000A128A1110280C1F222D232D512D1E0851
:100A4800A000A101A201A3012308F3002208F200DB
:100A58002108F1002008F00000300A128A118023D2
:100A68000A128A11730883120313D7007208D6007A
:100A78007108D5007008D4001E08A000A101200844
:100A8800D8002108D9001D3083120313A000A00B41
:100A98004B2D831203130C139F142608FF002508FF
:100AA8008A00240E8300FE0E7E0E090083120313B3
:100AB800AF00AB01AC012708A900AA012908AD00C5
:100AC8002A08AE002F1C692D6A2D702D2D08AB0742
:100AD8000318AC0A2E08AC0701300310AD0DAE0D9B
:100AE800FF3E031D712D0310AF0C2F08031D7D2D34
:100AF8007E2D662D2C08A8002B08A7000800831659
:100B080003138C15831203138C1183160313871593
:100B180007128716243083120313940083160313D5
:100B2800940108008B170B17831603138C160C16E9
:100B38000C178130831203139F00831603139F0140
:100B480008000330831603178800890101308316D3
:0E0B580003138500880183120313880108002F
:04400E00D723FF3F76
:00000001FF
