:020000040000FA
:060000000A128A110C280F
:10000800FE00030EF7000A08F8000A128A11612898
:100018000A128A110F2883133030FD000030FE00C9
:10002800C130FF00203084000A128A11B2200A125F
:100038008A11F001F101F201F301F401F5018301E4
:100048000A128A1191280130831603178800890142
:1000580001308316031385008312031385010330CF
:100068008316031386008312031386018316031372
:1000780088018312031388018316031389018312ED
:10008800031389018316031387018312031387015E
:100098008B178B150B100B178B160B11831603136D
:1000A800161496140C17F4018130831203139F0061
:1000B800831603139F01F50108000B1C64286528AB
:1000C800772883120313861C6A286B286E28013050
:1000D800F4027628061C7128722876280130F6006A
:1000E8007608F4070B10831203139F187C287D28C9
:1000F8008A281E08F6007608F5001030F600F60B80
:1001080083280000831203130C139F1478088A00B5
:10011800770E8300FE0E7E0E09000A128A11272030
:100128000A128A111030F900F90B9828000083127E
:1001380003139F1409107408880075087402031CBF
:10014800A628A728A92809109F2809149F280A1259
:100158008A110C287E088A007F0882000A128A11F8
:10016800AE200A128A118000840A04087D06031949
:100178000034FF0A0319FE0AB2283F3406345B3400
:100188004F3466346D347D3407347F346F347734BC
:0A0198007C3439345E34793471345C
:04400E00D120FF3F7F
:00000001FF
