:020000040000FA
:060000000A128A11E22F32
:100DD8000134003401340034831603178801890173
:100DE800073083160313850086018701880189016E
:100DF8008312031385018601870188018901080090
:100E08000130F8000030F9000130F6000030F7003A
:100E1800FA01FB018312031306140630F2001330A3
:100E2800F100AD30F000F00B172FF10B172FF20B7C
:100E3800172F1E2F8312031386140630F200133067
:100E4800F100AD30F000F00B272FF10B272FF20B3C
:100E5800272F2E2F8312031306150630F2001330A6
:100E6800F100AD30F000F00B372FF10B372FF20BFC
:100E7800372F3E2F83120313061086100611080021
:100E88000A128A11F0260A128A1183120313051C0A
:100E98004E2F4F2F492F1A30F500F830F400F40B7D
:100EA800532FF50B532F00008312031305185D2FE2
:100EB8005E2F8A2F0A128A1104270A128A1101301A
:100EC800F0000030F1000A128A118E270A128A11E6
:100ED8007108FB007008FA007A037B04031D752F64
:100EE800762F7A2F831203130914492F02307A06BA
:100EF8007B04031D802F812F852F831203138914F0
:100F0800492F0330831203138900492F492F0A12EE
:100F18008A11002870037104031D932F942FE12F69
:100F280083120313851C992F9A2FBB2F4130F3008E
:100F3800EE30F200F20B9E2FF30B9E2F000083126F
:100F480003138518A82FA92FBB2F78088700031033
:100F5800780DF800790DF90078087904031DB52F8C
:100F6800B62FBB2F0130F0000030F100E12F051D36
:100F7800BE2FBF2F942F4130F300EE30F200F20B5A
:100F8800C32FF30BC32F0000831203130519CD2FB2
:100F9800CE2FE02F760888000310760DF600770D27
:100FA800F70076087704031DDA2FDB2FE02F0230D5
:100FB800F0000030F100E12F942F08000A128A1186
:100FC800EC260A128A11F6000A128A11ED260A1274
:100FD8008A11F7000A128A11EE260A128A11F800FD
:100FE8000A128A11EF260A128A11F900FA01FB0186
:080FF80083010A128A11442F43
:04400E00D120FF3F7F
:00000001FF
