:020000040000FA
:060000000A128A11E22F32
:100DAE00013400340134003483160317880189019D
:100DBE000730831603138500860187018801890198
:100DCE0083120313850186018701880189010800BA
:100DDE000130F8000030F9000130F6000030F70065
:100DEE00FA01FB018312031306140630F2001330CE
:100DFE00F100AD30F000F00B022FF10B022FF20BD1
:100E0E00022F092F8312031386140630F2001330BB
:100E1E00F100AD30F000F00B122FF10B122FF20B90
:100E2E00122F192F8312031306150630F2001330FA
:100E3E00F100AD30F000F00B222FF10B222FF20B50
:100E4E00222F292F831203130610861006118901F3
:100E5E0008000A128A11DB260A128A118312031362
:100E6E00051C3A2F3B2F352F1A30F500F830F400C1
:100E7E00F40B3F2FF50B3F2F0000831203130518C1
:100E8E00492F4A2F7A2F0A128A11EF260A128A1137
:100E9E000130F0000030F1000A128A117E270A128A
:100EAE008A117108FB007008FA007A037B04031D97
:100EBE00612F622F682F8312031309148701880193
:100ECE00352F02307A067B04031D6E2F6F2F732F82
:100EDE00831203138914652F0330831203138900C1
:100EEE0087018801352F352F0A128A1100287003C9
:100EFE007104031D832F842FE12F83120313851C8E
:100F0E00892F8A2FB22F4130F300EE30F200F20B10
:100F1E008E2FF30B8E2F0000831203138518982F3C
:100F2E00992FB22F780887000310780DF800790DED
:100F3E00F9007908803AFF0080307F02031DA92F47
:100F4E0081307802031CAC2FAD2FB22F0130F00090
:100F5E000030F100E12F83120313051DB72FB82FB8
:100F6E00842F4130F300EE30F200F20BBC2FF30B66
:100F7E00BC2F0000831203130519C62FC72FE02FB5
:100F8E00760888000310760DF600770DF7007708C7
:100F9E00803AFF0080307F02031DD72F813076020A
:100FAE00031CDA2FDB2FE02F0230F0000030F100AF
:100FBE00E12F842F08000A128A11D7260A128A11ED
:100FCE00F6000A128A11D8260A128A11F7000A129E
:100FDE008A11D9260A128A11F8000A128A11DA2603
:100FEE000A128A11F900FA01FB0183010A128A1111
:020FFE00302F92
:04400E00D120FF3F7F
:00000001FF
