:020000040000FA
:100000000A128A11FC2F00308A000408840A820731
:10001000003468346F346C34613420346D3475349A
:080020006E3464346F340034C7
:100D7E008B170B17831603138C1608008316031399
:100D8E000C178130831203139F00831603139F01E8
:100D9E000800033083160317880089010330831679
:100DAE0003138500860187018801831203138501D1
:100DBE008601870188010800F300831203130613CE
:100DCE0073080A128A11FD260A128A11831203135E
:100DDE0086170B30F2006230F100F10BF42EF20B9D
:100DEE00F42E00008312031386130800F000701C0B
:100DFE00012F022F062F831203130814092F8312BB
:100E0E0003130810F01C0C2F0D2F0F2F8814102F0A
:100E1E008810701D132F142F162F0815172F081159
:100E2E00F01D1A2F1B2F1D2F88151E2F881108003D
:100E3E000A128A11D0260A128A110A128A11BF26A4
:100E4E000A128A110A128A11C5260A128A11103044
:100E5E00F800F80B302F00000A128A119F270A1291
:100E6E008A1101300A128A1141270A128A110A12B6
:100E7E008A110028F700F501F601582F750877073B
:100E8E0084000A128A1103200A128A110A128A1188
:100E9E0066270A128A110130F5070318F60A003088
:100EAE00F6077508770784000A128A1103200A12C2
:100EBE008A11003A031D642F652F452F0800F40098
:100ECE0074080F39FF007F08F2007408F039FF0034
:100EDE007F08F3008312031306177308F100043022
:100EEE000310F10CFF3E031D772F71080A128A11B1
:100EFE00FD260A128A118312031386171A30F10087
:100F0E00F10B872F000083120313861372080A1247
:100F1E008A11FD260A128A118312031386171A30BC
:100F2E00F100F10B982F00008312031386130800B3
:100F3E0000300A128A11FD260A128A113430F50089
:100F4E00F130F400F40BA92FF50BA92FAE2F0330BF
:100F5E000A128A11E3260A128A110D30F500FB30AF
:100F6E00F400F40BB82FF50BB82FBD2F03300A1277
:100F7E008A11E3260A128A111D30F5009130F40011
:100F8E00F40BC72FF50BC72F03300A128A11E32675
:100F9E000A128A1102300A128A11E3260A128A11E3
:100FAE0002300A128A11E3260A128A1108300A1236
:100FBE008A11E3260A128A1100300A128A11E326D8
:100FCE000A128A110C300A128A11E3260A128A11A9
:100FDE0000300A128A11E3260A128A1106300A120A
:100FEE008A11E3260A128A11080083010A128A1155
:020FFE001F2FA3
:04400E00DF20FF3F71
:00000001FF
