:020000040000FA
:060000000A128A11122809
:10000800FE00030E83120313A4000408A5000A08C7
:10001800A6007F08A7000A128A11A42E0A128A11C4
:10002800152883135E30840066300A168A111D274E
:100038000A128A11A0308400CA300A168A111D27B4
:100048000A128A11831790308400CC300A168A115C
:100058001D270A128A1183010A128A11942B83120E
:10006800031334088039FF007F08BE003408B90044
:100078003907FF007F08C400B31F432844284528D8
:1000880044144408031949284A285928440A031DD6
:100098004E284F2857280030B4000030B3000030F5
:1000A800B2000030B100B31761280030B40000304E
:1000B800B3000030B2000030B10038088039FF00CA
:1000C8007F08BE063808B9003907FF007F08C3005B
:1000D800B71F6F287028712843144308031975281F
:1000E80076288528430A031D7A287B288328003030
:1000F800B8000030B7000030B6000030B500B717C0
:100108008D280030B8000030B7000030B60000304D
:10011800B500430803199128922897284408031D1D
:1001280096289728A0280030B4000030B30000308B
:10013800B2000030B100932B3108FF007F08A800FF
:1001480037080A168A11AA270A128A11831203137A
:100158002908CA002808C9004908B900BA01BB0122
:10016800BC013C08C2003B08C1003A08C00039087D
:10017800BF004A08B900BA01BB01BC013C08C8006D
:100188003B08C7003A08C6003908C5003208FF0016
:100198007F08A80036080A168A11AA270A128A11A7
:1001A800831203132908CA002808C9004908B9009E
:1001B800BA01BB01BC013908BF073A08031103188B
:1001C800013E0319E828C0073B0803110318013E44
:1001D8000319EF28C1073C0803110318013E03194E
:1001E800F628C2074A08B900BA01BB01BC013908A0
:1001F800C5073A0803110318013E03190429C60765
:100208003B0803110318013E03190B29C7073C08D3
:1002180003110318013E03191229C8073308FF0008
:100228007F08A80035080A168A11AA270A128A1117
:10023800831203132908CA002808C9004908B9000D
:10024800BA01BB01BC013908BF073A0803110318FA
:10025800013E03193029C0073B0803110318013E6A
:1002680003193729C1073C0803110318013E031974
:100278003E29C2074A08B900BA01BB01BC013908C6
:10028800C5073A0803110318013E03194C29C6078C
:100298003B0803110318013E03195329C7073C08FB
:1002A80003110318013E03195A29C8070830B90079
:1002B8000310BF0DC00DC10DC20DB90B5C2932086A
:1002C800FF007F08A80035080A168A11AA270A1213
:1002D8008A11831203132908CA002808C90049088B
:1002E800B9004A08BA00BB01BC013908BF073A087F
:1002F80003110318013E03198229C0073B080311A3
:100308000318013E03198929C1073C080311031882
:10031800013E03199029C2073108FF007F08A80091
:1003280036080A168A11AA270A128A118312031399
:100338002908CA002808C9004908B9004A08BA00AB
:10034800BB01BC013908BF073A0803110318013E75
:100358000319AF29C0073B0803110318013E03190D
:10036800B629C1073C0803110318013E0319BD292A
:10037800C2070830B9000310BF0DC00DC10DC20D72
:10038800B90BBF293108FF007F08A80035080A16F5
:100398008A11AA270A128A11831203132908CA008C
:1003A8002808C9004908B9004A08BA00BB01BC01BD
:1003B8003908BF073A0803110318013E0319E52954
:1003C800C0073B0803110318013E0319EC29C107B4
:1003D8003C0803110318013E0319F329C207320828
:1003E800FF007F08A80037080A168A11AA270A12F0
:1003F8008A11831203132908CA002808C90049086A
:10040800B9004A08BA00BB01BC013908C5073A0857
:1004180003110318013E0319122AC6073B080311EA
:100428000318013E0319192AC7073C0803110318CA
:10043800013E0319202AC8073308FF007F08A800D7
:1004480036080A168A11AA270A128A118312031378
:100458002908CA002808C9004908B9004A08BA008A
:10046800BB01BC013908C5073A0803110318013E4E
:1004780003193F2AC6073B0803110318013E031955
:10048800462AC7073C0803110318013E03194D2AE1
:10049800C8073308FF007F08A80037080A168A1122
:1004A800AA270A128A11831203132908CA002808E6
:1004B800C9004908B9004A08BA00BB01BC010830A4
:1004C8000310B90DBA0DBB0DBC0DFF3E031D642A08
:1004D8003908C5073A0803110318013E0319752A9C
:1004E800C6073B0803110318013E03197C2AC707F6
:1004F8003C0803110318013E0319832AC8073F0863
:10050800B9004008BA004108BB004208BC001830D6
:100518000310BC0CBB0CBA0CB90CFF3E031D8C2A93
:100528003908C5073A0803110318013E03199D2A23
:10053800C6073B0803110318013E0319A42AC7077D
:100548003C0803110318013E0319AB2AC8070830F9
:10055800B9000310BF0DC00DC10DC20DB90BAD2AF6
:1005680044084307B900BA01BA0D3908823EC900E8
:100578003A080318013EFF3ECA00DF2A0130B900DD
:100588000310C50DC60DC70DC80DB90BC42AC21F6F
:10059800CE2ACF2AD02A45140130B9000310BF0D46
:1005A800C00DC10DC20DB90BD22AFF30C9070318FF
:1005B800CA0AFF30CA07C71FE22AE32AC22AC301B0
:1005C800C21FE72AE82A042BFF303F05B900FF3095
:1005D8004005BA00FF304105BB007F304205BC0032
:1005E8003C083B043A0439040319FB2AFC2AFF2A75
:1005F800C301C30A042B451C022B032B042BFC2A22
:1006080043080319082B092B3A2B0130C507003082
:1006180003180130C607003003180130C70700303F
:1006280003180130C807481C1A2B1B2B3A2B450806
:10063800B9004608BA004708BB004808BC000130AA
:10064800BD003C0DBC0CBB0CBA0CB90CBD0B252B6A
:100658003C08C8003B08C7003A08C6003908C5006E
:100668000130C9070318CA0A0030CA074A08803A85
:10067800FF0080307F02031D432BFF304902031C1B
:10068800462B472B522B7F3083120313C800803030
:10069800C7000030C6000030C500872B8312031343
:1006A8004A08803AFF0080307F02031D5D2B01302D
:1006B80049020318602B612B6D2B00308312031342
:1006C800C8000030C7000030C6000030C500BE01B9
:1006D800872B831203134908FF007F08C400FF30EB
:1006E800C505FF30C6057F30C7050030C805441C66
:1006F8007E2B7F2B802BC7174408B9000310390CB9
:10070800FF007F08C8003E08FF007F08C8044808AB
:10071800B4004708B3004608B2004508B100080015
:100728000A128A1550200A128A1183120313E20151
:10073800E3010A168A1116270A128A110F30831646
:100748000313DB00DB0BA62BA92B0A128A156320E7
:100758000A128A110A168A1125270A128A11831287
:1007680003139F140030BA000030B9002530B800D8
:100778008030B7000A128A150A220A128A118312D7
:100788000313AD0100300A128A1593200A128A1148
:10079800223083120313AD008030AE000A168A118E
:1007A800D3270A128A118316031332033304031D55
:1007B800DE2BDF2B1B2CB201B30190308312031305
:1007C800B4000130B5003D30FF007F08B600831645
:1007D80003132F0883120313B800831603132E087C
:1007E80083120313B7000A128A15CF230A128A113B
:1007F80083120313AD01AD0A0C300A128A15932037
:100808000A128A11903083120313AD000130AE0032
:100818000A168A11D3270A128A110F308316031376
:10082800DB00DB0B152C182C831203139F14831287
:1008380062086304031D212C222C1A2D831603132E
:10084800270883120313B80083160313260883129C
:100858000313B70083160313250883120313B60086
:1008680083160313240883120313B5004330B4001E
:10087800FA30B3000030B2000030B1000A128A1119
:1008880033200A128A11831203133408D200330862
:10089800D1003208D0003108CF004330CE007F307D
:1008A800CD000030CC000030CB000A128A15682534
:1008B8000A128A11831203134E0883160313DA00EF
:1008C800831203134D0883160313D90083120313ED
:1008D8004C0883160313D800831203134B0883169E
:1008E8000313D7000A128A1577220A128A1183166F
:1008F8000313580883120313E100831603135708E0
:1009080083120313E000DE01DF010A3083120313B0
:10091800A8000030A9006108AB006008AA000A120C
:100928008A1546210A128A11831203132808FF0028
:100938005E08AB3E84007F08831380000A30A8005D
:100948000030A9006108AB006008AA000A128A15E5
:10095800A1210A128A11831203132908E100280829
:10096800E0000130DE070318DF0A0030DF075F0808
:10097800803AFF0080307F02031DC42C03305E02E2
:10098800031CC72CC82C892C83120313AD01AD0A94
:1009980000300A128A1593200A128A11B63083127F
:1009A8000313B4000030B5003430FF007F08B600F0
:1009B800831603132D08DB00DC015B088312031385
:1009C800B700831603135C0883120313B800831659
:1009D80003132C08DD00DE015D0883120313B90040
:1009E800831603135E0883120313BA0083160313D6
:1009F8002B08DF00E0015F0883120313BB00831696
:100A08000313600883120313BC000A128A15CF234C
:100A18000A128A11B63083120313AD000030AE00FB
:100A28000A168A11D3270A128A112B2E620363042D
:100A3800031D1F2D202D2B2E83160313230883122D
:100A48000313B80083160313220883120313B70095
:100A580083160313210883120313B60083160313A6
:100A6800200883120313B5004330B400FA30B300F2
:100A78000030B2000030B1000A128A1133200A1285
:100A88008A11831203133408D2003308D1003208C4
:100A9800D0003108CF004330CE007F30CD00003089
:100AA800CC000030CB000A128A1568250A128A1178
:100AB800831203134E0883160313DA0083120313F9
:100AC8004D0883160313D900831203134C088316A9
:100AD8000313D800831203134B0883160313D7009C
:100AE8000A128A1577220A128A11831603135808E4
:100AF800B5005708B40083120313DE01DF010A3082
:100B080083120313A8000030A900831603133508C5
:100B180083120313AB0083160313340883120313E1
:100B2800AA000A128A1546210A128A11831203138F
:100B38002808FF005E08A83E84007F088313800011
:100B48000A30A8000030A900831603133508831261
:100B58000313AB0083160313340883120313AA008C
:100B68000A128A15A1210A128A118312031329086D
:100B780083160313B500831203132808831603137F
:100B8800B400013083120313DE070318DF0A0030B4
:100B9800DF075F08803AFF0080307F02031DD62DF3
:100BA80003305E02031CD92DDA2D832D8312031323
:100BB800AD01AD0A06300A128A1593200A128A116D
:100BC800B83083120313B4000130B5003430FF008D
:100BD8007F08B600831603132A08DB00DC015B08D4
:100BE80083120313B700831603135C0883120313DD
:100BF800B800831603132908DD00DE015D0883129F
:100C08000313B900831603135E0883120313BA0093
:100C1800831603132808DF00E0015F08831203131B
:100C2800BB0083160313600883120313BC000A1267
:100C38008A15CF230A128A11B83083120313AD0024
:100C48000130AE000A168A11D3270A128A11A4307D
:100C580083120313B4000130B5000B30FF007F0886
:100C6800B600831603132D08DB00DC015B08831232
:100C78000313B700831603135C0883120313B80029
:100C8800831603132C08DD00DE015D0883120313AD
:100C9800B900831603135E0883120313BA00831680
:100CA80003132B08DF00E0015F0883120313BB0066
:100CB80083160313600883120313BC0083160313FF
:100CC8002A08E100E201610883120313BD008316BC
:100CD8000313620883120313BE0083160313290843
:100CE800E300E401630883120313BF0083160313B0
:100CF800640883120313C000831603132B08E5004E
:100D0800E601650883120313C100831603136608FE
:100D180083120313C200831603132F0883120313CD
:100D2800C400831603132E0883120313C3000A1288
:100D38008A15CF230A128A11D72B0A128A11122870
:100D48000C1FA72EA82E112F013083160313B200F3
:100D58000030B3008312031362086304031DB52E29
:100D6800B62ED42E1E08A000A101A201A3012308BB
:100D7800F3002208F2002108F1002008F0000030FA
:100D88000A128A1515230A128A1173088316031387
:100D9800A7007208A6007108A5007008A400F72E25
:100DA80062036304031DD92EDA2EF72E1E08A00055
:100DB800A101A201A3012308F3002208F2002108DF
:100DC800F1002008F00000300A128A1515230A12D3
:100DD8008A11730883160313A3007208A20071080E
:100DE800A1007008A00001308312E2070318E30A8B
:100DF8000030E3070C13023062066304031D052F5D
:100E0800062F082FE201E3016208A000A00DA00D43
:100E18001F082006C33920069F000C1E142F152F0B
:100E2800312F831603133008A43E8400831700086B
:100E38008312031399001430831603133006310408
:100E4800031D272F282F2B2FB001B101312F01307F
:100E5800B0070318B10A0030B10783128C1E352F72
:100E6800362F572F1A08FF007F08E4002B3064063E
:100E7800031D3F2F402F492F013083160313AE0760
:100E88000318AF0A0030AF07572F2D306406031D33
:100E98004E2F4F2F572FFF3083160313AE0703181B
:100EA800AF0AFF30AF0783122708FF0026088A0021
:100EB80025088400240E8300FE0E7E0E090083128E
:100EC8000313B201AB1F692F6A2F772FA809A9094D
:100ED800AA09AB09A80A0319A90A0319AA0A031936
:100EE800AB0AB201B20AAF1F7A2F7B2F8A2FAC0947
:100EF800AD09AE09AF09AC0A0319AD0A0319AE0A68
:100F08000319AF0A0130FF007F08B2060030B600AF
:100F18000030B5000030B4000030B3002B082A04BC
:100F2800290428040319992F9A2FE72FB101B10A30
:100F3800AA2F0130B0000310A80DA90DAA0DAB0D02
:100F4800B00B9F2F0130FF007F08B107AB1FAD2FFB
:100F5800AE2F9D2F0130B0000310B30DB40DB50DA9
:100F6800B60DB00BB02F2B082F02031DC52F2A0872
:100F78002E02031DC52F29082D02031DC52F280881
:100F88002C02031CC82FC92FD82F2808AC02290807
:100F9800031C290FAD022A08031C2A0FAE022B08D6
:100FA800031C2B0FAF02331401300310AB0CAA0C37
:100FB800A90CA80CFF3E031DD92F0130B102031D57
:100FC800E62FE72FAE2F32080319EB2FEC2FF72F60
:100FD800B309B409B509B609B30A0319B40A031960
:100FE800B50A0319B60A3608AB003508AA00340852
:100FF800A9003308A8000800FF1B0A2883137F18DC
:1010080083170008840A0319FF0A080008308A00B9
:101018000408840A82070034013400340A34003496
:1010280064340034E8340334103427342534693404
:101038002E34253469342534693456342034253423
:1010480069342E34253469342534693456342034CF
:10105800253469340D340A3400342034533431349F
:101068003A34203420342034533432343A3420345F
:1010780020342034533433343A3420340034253483
:1010880069342E34253469342534693456340034AF
:101098002534333469340034033083160317880049
:1010A80089010330831603138500890186018801AD
:1010B80083120313850186018801890108008312C0
:1010C800031388018316031388012730831203133F
:1010D800AE00F430AD00AD0B6F28AE0B6F280000EA
:1010E80032300A168A1154270A128A1538300A161D
:1010F8008A1154270A128A150C300A168A115427A5
:101108000A128A1501300A168A1154270A128A15FA
:1011180006300A168A1154270A128A150800831203
:101128000313B20002302D0203189B289C28C32801
:1011380010303202031CA128A228A328C3282D039B
:101148000319A728A828AE2880303204B000003040
:10115800B100B328C0303204B0000030B10030080C
:101168000A168A1154270A128A150D30831203139E
:10117800AF00FB30AE00AE0BBF28AF0BBF28080096
:10118800831203132F0830040319CB28CC28FB281B
:10119800B301B30ADA2801300310AF0DB00DFF3EDA
:1011A800031DD0280130FF007F08B307B01FDD28DA
:1011B800DE28CF2830083202031DE4282F08310228
:1011C800031CE728E828EE282F08B1023008031C82
:1011D800B203B20201300310B00CAF0CFF3E031D86
:1011E800EF280130B302031DFA28FB28DE28320855
:1011F800B0003108AF00080083120313AC01AD0141
:1012080028082904031909290A294129AE01AE0A27
:10121800182901300310A80DA90DFF3E031D0E2942
:101228000130FF007F08AE07A91F1B291C290D29C3
:1012380001300310AC0DAD0DFF3E031D1D2929081B
:101248002B02031D292928082A02031C2C292D29D1
:1012580034292808AA022908031CAB03AB022C1462
:1012680001300310A90CA80CFF3E031D35290130DD
:10127800AE02031D402941291C292D08A9002C086C
:10128800A800080083120313AD01AB1F4C294D2998
:101298005429AA09AB09AA0A0319AB0AAD01AD0A78
:1012A800A91F572958295D29A809A909A80A0319B6
:1012B800A90A280829040319622963299229AC017B
:1012C800AC0A712901300310A80DA90DFF3E031DBA
:1012D80067290130FF007F08AC07A91F7429752909
:1012E800662929082B02031D7B2928082A02031CCA
:1012F8007E297F2985292808AA022908031CAB030F
:10130800AB0201300310A90CA80CFF3E031D86296F
:101318000130AC02031D9129922975292D08031962
:10132800962997299C29AA09AB09AA0A0319AB0A85
:101338002B08A9002A08A800080083120313AD018E
:10134800A91FA729A829AF29A809A909A80A031923
:10135800A90AAD01AD0AAB1FB229B329BC29AA0954
:10136800AB09AA0A0319AB0A0130FF007F08AD06D2
:10137800AE01AF01280829040319C329C429FB2990
:10138800AC01AC0AD22901300310A80DA90DFF3E0B
:10139800031DC8290130FF007F08AC07A91FD52904
:1013A800D629C72901300310AE0DAF0DFF3E031D2E
:1013B800D72929082B02031DE32928082A02031C20
:1013C800E629E729EE292808AA022908031CAB0305
:1013D800AB022E1401300310A90CA80CFF3E031D0C
:1013E800EF290130AC02031DFA29FB29D6292D0863
:1013F8000319FF29002A052AAE09AF09AE0A031905
:10140800AF0A2F08A9002E08A8000800203083166C
:101418000313980083160317871190308312031360
:1014280098003708BB003808BC003908BD003A08E6
:10143800BE0006300310BB0DBC0DBD0DBE0DFF3E3A
:10144800031D1E2A3E08AB003D08AA003C08A9005F
:101458003B08A8003708BF003808C0003908C10099
:101468003A08C20006300310BF0DC00DC10DC20DF1
:10147800FF3E031D372A0030C3001230C4007A3003
:10148800C5000030C6003F08C3024008031C400FD7
:101498004E2A4F2AC4024108031C410F542A552AD8
:1014A800C5024208031C420F5A2A5B2AC602460894
:1014B800AF004508AE004408AD004308AC000A126E
:1014C8008A1163270A128A15831203132B08CA008C
:1014D8002A08C9002908C8002808C7004708831631
:1014E800031399000800031083160313590D5A0DAE
:1014F800FF007F0883120313DD005D08031D852AA2
:10150800862A912A003083160313DA000030D900A6
:101518000030D8000030D700142B83160313570867
:1015280083120313D8008316031358088312031376
:10153800D90083160313590883120313DA0083169C
:1015480003135A0883120313DB001F300310DB0C4C
:10155800DA0CD90CD80CFF3E031DAA2A5808FF0044
:101568007F08DC0083160313D917FF30D705FF3037
:10157800D805FF30D9050030DA05963083120313F9
:10158800DD02DD1FC82AC92AE72A5D08803A973E8E
:101598000318CF2AD02AD12A862A013003108316AD
:1015A8000313DA0CD90CD80CD70CFF3E031DD22A32
:1015B8000130FF007F0883120313DD07031DE52AAE
:1015C800E62AD12A022B20305D02031CEC2AED2AE0
:1015D800FD2A862A0130D800031083160313D70D7D
:1015E800D80DD90DDA0D83120313D80BF02A013068
:1015F800DD025D08031D012B022BEE2A5C0803198E
:10160800062B072B142B83160313D709D809D909DE
:10161800DA09D70A0319D80A0319D90A0319DA0A01
:101628000800F800780803191A2B1B2B2F2BF31F1F
:101638001E2B1F2B2F2B7009FA007109FB00720952
:10164800FC007309FD00FA0A0319FB0A0319FC0AD6
:101658000319FD0A372B7308FD007208FC00710896
:10166800FB007008FA007308720471047004031D0B
:101678003E2B3F2B482B0030F3000030F2000030A7
:10168800F1000030F000CE2B9630FF007F08F90003
:101698005A2B0130FF007F08F90701300310FD0CB9
:1016A800FC0CFB0CFA0CFF3E031D522BFE307D0593
:1016B800031D5F2B602B4D2B7C2B0130FF007F0817
:1016C800F9070130FA07003003180130FB07003032
:1016D80003180130FC07003003180130FD07013002
:1016E8000310FD0CFC0CFB0CFA0CFF3E031D742BC5
:1016F800FF307D05031D812B822B612B8E2B013042
:10170800F9020130F4000310FA0DFB0DFC0DFD0D7C
:10171800F40B872BFC1B912B922B982B0230790210
:101728000318972B982B832B79189B2B9C2BA42B76
:10173800FF30FA05FF30FB057F30FC05FF30FD0563
:101748000310F90C7908F400F501F601F7011830D7
:101758000310F40DF50DF60DF70DFF3E031DAC2B30
:101768007408FA047508FB047608FC047708FD047D
:1017780078080319C02BC12BC62BF31FC42BC52B0C
:10178800C62BFD177D08F3007C08F2007B08F100EA
:101798007A08F00008003730FF007F08831203132F
:1017A800C8004F2D25304F060319DB2BDC2BEC2B03
:1017B8004F08FF00340884008317351C83137F0803
:1017C80080000130B4070318B50A0030B5074F2D63
:1017D800CD01CE01CA01360884000A128A150A20F2
:1017E8000A128A150A168A1140270A128A15031C3A
:1017F800FE2BFF2B3F2C83120313CD01CE010A30A1
:1018080083120313A8000030A9004E08AB004D084E
:10181800AA000A168A1183270A128A15831203134B
:101828002908CE002808CD00360884000A128A1537
:101838000A200A128A15D03EC500FF30031800306E
:10184800C6004508CD070318CE0A4608CE07013062
:10185800FF007F08B607360884000A128A150A2096
:101868000A128A150A168A1140270A128A150318BD
:101878003E2C3F2C032C013083120313B607FF3094
:10188800360784000A128A150A200A128A15CF0020
:10189800C500C6014608003A0319532C4F2D4508C8
:1018A800003A0319612D643A03195E2C0D3A0319A5
:1018B8005E2C4F2D4808840083130008CB00840A4F
:1018C8000008CC000230FF007F08C807CC1F6D2C31
:1018D8006E2C772C0330FF007F08CA04CB09CC0993
:1018E800CB0A0319CC0ACF01CF0A4F08C500450718
:1018F800013E84000A128A150A200A128A15C600B7
:101908000A128A150A200A128A15C70047084C02CB
:10191800031D902C46084B020318932C942C952CED
:101928009F2C0130FF007F08CF0705304F06031DAD
:101938009E2C9F2C792C4D084E040319A42CA52C01
:10194800B12C4A0803390319AA2CAB2CB12CFF304F
:10195800CD070318CE0AFF30CE074E08803A803CE8
:10196800031DB82C4D084F020318BB2CBC2CC82CE7
:10197800831203134F08C500C6014508CD02460867
:10198800031CCE03CE02CC2C83120313CD01CE014F
:101998004D084E040319D12CD22CED2C2030FF0019
:1019A800340884008317351C83137F0880000130B6
:1019B800B4070318B50A0030B507FF30CD07031880
:1019C800CE0AFF30CE074D084E04031DEC2CED2C3B
:1019D800D22C4A0803390319F22CF32C022D2D308E
:1019E800FF00340884008317351C83137F088000A8
:1019F8000130B4070318B50A0030B5074F08FF00D7
:101A08007F08C900462D0A30AF000030B0004908F1
:101A1800C5004507013E84000A128A150A200A12E9
:101A28008A15A8000A128A150A200A128A15A9001E
:101A38004C08AB004B08AA000A128A1500210A12AA
:101A48008A15831203132908B2002808B1000A1264
:101A58008A15C4200A128A15831203132F08303EF0
:101A6800FF007F08CF004F08FF0034088400831769
:101A7800351C83137F0880000130B4070318B50AAA
:101A88000030B507FF30FF007F08C907490A031D6A
:101A98004E2D4F2D072D0130B607FF303607840035
:101AA8000A128A150A200A128A15FF007F08CF0039
:101AB8004F08031D602D612DD62B34088400831731
:101AC800351C8313800108008312031352088039E0
:101AD800FF007F0883160313CE00831203135208F6
:101AE800D3005307FF007F0883160313D500831222
:101AF8000313D11F802D812D842D831603135514B4
:101B080083160313550803198A2D8B2D9E2D550A0C
:101B1800031D8F2D902D9A2D003083120313D200B0
:101B28000030D1000030D0000030CF008312D11730
:101B3800D201A82D003083120313D2000030D10047
:101B48000030D0000030CF004E088039FF007F08F9
:101B580083160313CE06831203134E08D3005307CC
:101B6800FF007F0883160313D60083120313CD1FCB
:101B7800BE2DBF2DC22D83160313561483160313CF
:101B880056080319C82DC92DDC2D560A031DCD2D65
:101B9800CE2DD82D003083120313CE000030CD0097
:101BA8000030CC000030CB008312CD17CE01E62DDB
:101BB800003083120313CE000030CD000030CC007B
:101BC8000030CB004E084D044C044B04031DED2D92
:101BD800EE2D0B2E0030D2000030D1000030D000A6
:101BE8000030CF008030D1047F30D2048316031335
:101BF8004E08FF007F0883120313D2045208CE0058
:101C08005108CD005008CC004F08CB00FF2F831699
:101C180003135508031D112E122E1D2E003083129A
:101C28000313CE000030CD000030CC000030CB00D4
:101C3800FF2F550883120313D300D4015408D6008C
:101C4800831603135608831203135302D500031C8B
:101C5800D60355087F3E83160313CF008312031360
:101C680056080318013E003E83160313D000831262
:101C78000313520883160313CD008312031351086C
:101C880083160313CC00831203135008831603131F
:101C9800CB00831203134F0883160313CA000030C6
:101CA80083120313D2000030D1000030D00000307E
:101CB800CF00003083160313D4000030D300003067
:101CC800D2000030D100D601EB2E560803196D2E34
:101CD8006E2E9D2E013083120313D300031083163A
:101CE8000313CA0DCB0DCC0DCD0D83120313D30BEB
:101CF800722E0130D3000310CF0DD00DD10DD20DAF
:101D0800D30B7F2E83160313D41F8B2E8C2E8F2E6E
:101D1800831203134F1401308312D3000310831668
:101D28000313D10DD20DD30DD40D83120313D30B8E
:101D3800922E83124E08831603134D02031DBA2EEA
:101D4800831203134D08831603134C02031DBA2E86
:101D5800831203134C08831603134B02031DBA2E78
:101D6800831203134B08831603134A02031CBD2E68
:101D7800BE2EE72E5417831203134B088316031342
:101D8800CA02831203134C08031C4C0FCC2ECF2E0F
:101D980083160313CB02831203134D08031C4D0F44
:101DA800D62ED92E83160313CC02831203134E08A2
:101DB800031C4E0FE02EE32E83160313CD0283126D
:101DC8000313831603130130FF007F08D6071A3068
:101DD8005602031CF02EF12E692E4D084C044B04BC
:101DE8004A040319F82EF92E232F5114232F0130FA
:101DF800D3000310CF0DD00DD10DD20DD30BFD2E76
:101E080083160313D41F092F0A2F0D2F83120313D0
:101E18004F1401308312D300031083160313D10D1E
:101E2800D20DD30DD40D83120313D30B102FFF3013
:101E380083160313CF070318D00AFF30D007831285
:101E48000313D11F282F292FFB2E83160313D60126
:101E5800D41F2F2F302F5C2FFF305105831203130F
:101E6800D300FF3083160313520583120313D400E3
:101E7800FF3083160313530583120313D5007F30F5
:101E880083160313540583120313D600560855040A
:101E9800540453040319512F522F572F8316031339
:101EA800D601D60A5C2F4F1C5A2F5B2F5C2F522F5E
:101EB8008316031356080319622F632F982F0130D6
:101EC80083120313CF07003003180130D007003006
:101ED80003180130D107003003180130D207521C13
:101EE800762F772F982F4F08D3005008D400510829
:101EF800D5005208D6000130D700560DD60CD50CA7
:101F0800D40CD30CD70B812F5608D2005508D1001A
:101F18005408D0005308CF00013083160313CF07AD
:101F28000318D00A0030D007831603135008803AEC
:101F3800FF0080307F02031DA32FFF304F02031CD8
:101F4800A62FA72FB72FFF3083160313CF0000301B
:101F5800D000003083120313D2000030D1000030CB
:101F6800D0000030CF00831603135008803AFF00DA
:101F780080307F02031DC22F01304F020318C52F86
:101F8800C62FD72F83160313CF01D0010030831239
:101F98000313D2000030D1000030D0000030CF0051
:101FA80083160313CE01831603134F08FF007F081F
:101FB800D500551CE02FE12FE52F83120313D1170D
:101FC800EB2F7F30FF007F0883120313D1058316A0
:101FD8000313550883120313D3000310530CFF0097
:101FE8007F08D200831603134E08FF007F08831270
:081FF8000313D204022E0800BD
:102E2C008B170B17831603138C160C1608006400F3
:102E3C008001840A04060319003404061E2F83162D
:102E4C0003130C178130831203139F008316031393
:102E5C009F01080083120313A900880108082904A4
:102E6C008800280C031C0910031809140911891473
:102E7C008910080083120313A900A8013A30290213
:102E8C000318492F4A2F522F30302902031C4F2F81
:102E9C00502F522FA801A80A280C080083120313E4
:102EAC00AC000D3083120313AB00FB30AA00AA0B4D
:102EBC005D2FAB0B5D2F83120313A8012C080A1690
:102ECC008A1130270A168A11080083120313AC00EA
:102EDC000D3083120313AB00FB30AA00AA0B742F26
:102EEC00AB0B742F83120313A801A80A2C080A1623
:102EFC008A1130270A168A11080083120313AC01B9
:102F0C00AD01281C8A2F8B2F912F2A08AC07031890
:102F1C00AD0A2B08AD0701300310AA0DAB0DFF3E17
:102F2C00031D922F01300310A90CA80CFF3E031DAA
:102F3C00992F28082904031DA42FA52F872F2D08AE
:102F4C00A9002C08A800080083120313B000AC01E0
:102F5C00AD012808AA00AB012A08AE002B08AF006F
:102F6C00301CB92FBA2FC02F2E08AC070318AD0A8E
:102F7C002F08AD0701300310AE0DAF0DFF3E031D42
:102F8C00C12F0310B00C3008031DCD2FCE2FB62F40
:102F9C002D08A9002C08A800080083120313AF0108
:102FAC00EE2F2F082D0784002E0803182E0AFF0081
:102FBC000A128A1500200A168A110A168A116B2722
:102FCC000A168A110130FF007F0883120313AF0722
:102FDC002F082D0784002E0803182E0AFF000A1252
:102FEC008A1500200A168A11003A031DFE2FFF2FA6
:042FFC00D72F0800C3
:04400E00D723FF3F76
:00000001FF
