:020000040000FA
:060000000A128A11122809
:10000800FE00030E83120313A4000408A5000A08C7
:10001800A6007F08A7000A128A11AF2E0A128A11B9
:10002800152883136030840068300A168A118524E5
:100038000A128A11CF308400E5300A168A11852405
:100048000A128A11831790308400E0300A168A1148
:1000580085240A128A1183010A128A11942B8312A9
:10006800031334088039FF007F08BE003408B90044
:100078003907FF007F08C400B31F432844284528D8
:1000880044144408031949284A285928440A031DD6
:100098004E284F2857280030B4000030B3000030F5
:1000A800B2000030B100B31761280030B40000304E
:1000B800B3000030B2000030B10038088039FF00CA
:1000C8007F08BE063808B9003907FF007F08C3005B
:1000D800B71F6F287028712843144308031975281F
:1000E80076288528430A031D7A287B288328003030
:1000F800B8000030B7000030B6000030B500B717C0
:100108008D280030B8000030B7000030B60000304D
:10011800B500430803199128922897284408031D1D
:1001280096289728A0280030B4000030B30000308B
:10013800B2000030B100932B3108FF007F08A800FF
:1001480037080A168A11F9240A128A11831203132E
:100158002908CA002808C9004908B900BA01BB0122
:10016800BC013C08C2003B08C1003A08C00039087D
:10017800BF004A08B900BA01BB01BC013C08C8006D
:100188003B08C7003A08C6003908C5003208FF0016
:100198007F08A80036080A168A11F9240A128A115B
:1001A800831203132908CA002808C9004908B9009E
:1001B800BA01BB01BC013908BF073A08031103188B
:1001C800013E0319E828C0073B0803110318013E44
:1001D8000319EF28C1073C0803110318013E03194E
:1001E800F628C2074A08B900BA01BB01BC013908A0
:1001F800C5073A0803110318013E03190429C60765
:100208003B0803110318013E03190B29C7073C08D3
:1002180003110318013E03191229C8073308FF0008
:100228007F08A80035080A168A11F9240A128A11CB
:10023800831203132908CA002808C9004908B9000D
:10024800BA01BB01BC013908BF073A0803110318FA
:10025800013E03193029C0073B0803110318013E6A
:1002680003193729C1073C0803110318013E031974
:100278003E29C2074A08B900BA01BB01BC013908C6
:10028800C5073A0803110318013E03194C29C6078C
:100298003B0803110318013E03195329C7073C08FB
:1002A80003110318013E03195A29C8070830B90079
:1002B8000310BF0DC00DC10DC20DB90B5C2932086A
:1002C800FF007F08A80035080A168A11F9240A12C7
:1002D8008A11831203132908CA002808C90049088B
:1002E800B9004A08BA00BB01BC013908BF073A087F
:1002F80003110318013E03198229C0073B080311A3
:100308000318013E03198929C1073C080311031882
:10031800013E03199029C2073108FF007F08A80091
:1003280036080A168A11F9240A128A11831203134D
:100338002908CA002808C9004908B9004A08BA00AB
:10034800BB01BC013908BF073A0803110318013E75
:100358000319AF29C0073B0803110318013E03190D
:10036800B629C1073C0803110318013E0319BD292A
:10037800C2070830B9000310BF0DC00DC10DC20D72
:10038800B90BBF293108FF007F08A80035080A16F5
:100398008A11F9240A128A11831203132908CA0040
:1003A8002808C9004908B9004A08BA00BB01BC01BD
:1003B8003908BF073A0803110318013E0319E52954
:1003C800C0073B0803110318013E0319EC29C107B4
:1003D8003C0803110318013E0319F329C207320828
:1003E800FF007F08A80037080A168A11F9240A12A4
:1003F8008A11831203132908CA002808C90049086A
:10040800B9004A08BA00BB01BC013908C5073A0857
:1004180003110318013E0319122AC6073B080311EA
:100428000318013E0319192AC7073C0803110318CA
:10043800013E0319202AC8073308FF007F08A800D7
:1004480036080A168A11F9240A128A11831203132C
:100458002908CA002808C9004908B9004A08BA008A
:10046800BB01BC013908C5073A0803110318013E4E
:1004780003193F2AC6073B0803110318013E031955
:10048800462AC7073C0803110318013E03194D2AE1
:10049800C8073308FF007F08A80037080A168A1122
:1004A800F9240A128A11831203132908CA0028089A
:1004B800C9004908B9004A08BA00BB01BC010830A4
:1004C8000310B90DBA0DBB0DBC0DFF3E031D642A08
:1004D8003908C5073A0803110318013E0319752A9C
:1004E800C6073B0803110318013E03197C2AC707F6
:1004F8003C0803110318013E0319832AC8073F0863
:10050800B9004008BA004108BB004208BC001830D6
:100518000310BC0CBB0CBA0CB90CFF3E031D8C2A93
:100528003908C5073A0803110318013E03199D2A23
:10053800C6073B0803110318013E0319A42AC7077D
:100548003C0803110318013E0319AB2AC8070830F9
:10055800B9000310BF0DC00DC10DC20DB90BAD2AF6
:1005680044084307B900BA01BA0D3908823EC900E8
:100578003A080318013EFF3ECA00DF2A0130B900DD
:100588000310C50DC60DC70DC80DB90BC42AC21F6F
:10059800CE2ACF2AD02A45140130B9000310BF0D46
:1005A800C00DC10DC20DB90BD22AFF30C9070318FF
:1005B800CA0AFF30CA07C71FE22AE32AC22AC301B0
:1005C800C21FE72AE82A042BFF303F05B900FF3095
:1005D8004005BA00FF304105BB007F304205BC0032
:1005E8003C083B043A0439040319FB2AFC2AFF2A75
:1005F800C301C30A042B451C022B032B042BFC2A22
:1006080043080319082B092B3A2B0130C507003082
:1006180003180130C607003003180130C70700303F
:1006280003180130C807481C1A2B1B2B3A2B450806
:10063800B9004608BA004708BB004808BC000130AA
:10064800BD003C0DBC0CBB0CBA0CB90CBD0B252B6A
:100658003C08C8003B08C7003A08C6003908C5006E
:100668000130C9070318CA0A0030CA074A08803A85
:10067800FF0080307F02031D432BFF304902031C1B
:10068800462B472B522B7F3083120313C800803030
:10069800C7000030C6000030C500872B8312031343
:1006A8004A08803AFF0080307F02031D5D2B01302D
:1006B80049020318602B612B6D2B00308312031342
:1006C800C8000030C7000030C6000030C500BE01B9
:1006D800872B831203134908FF007F08C400FF30EB
:1006E800C505FF30C6057F30C7050030C805441C66
:1006F8007E2B7F2B802BC7174408B9000310390CB9
:10070800FF007F08C8003E08FF007F08C8044808AB
:10071800B4004708B3004608B2004508B100080015
:100728000A168A11A8240A128A1183120313E401F3
:10073800E5010A168A117E240A128A110F308316DF
:100748000313C300C30BA62BA92B0A168A114F2526
:100758000A128A110A168A118D240A128A11831222
:1007680003139F140030BA000030B9002530B800D8
:100778008030B7000A168A11F6260A128A118312E7
:100788000313AD0100300A168A117F250A128A1157
:10079800223083120313AD008030AE000A168A118E
:1007A80022250A128A118316031361036204031DAA
:1007B800DE2BDF2B182CE101E2013D30FF007F0822
:1007C80083120313B400831603135E088312031302
:1007D800B600831603135D0883120313B500903027
:1007E8000A128A15D6200A128A1183120313AD0140
:1007F800AD0A0C300A168A117F250A128A11903028
:1008080083120313AD000130AE000A168A112225A7
:100818000A128A110F3083160313C300C30B122C5C
:10082800152C831203139F14831264086504031D97
:100838001E2C1F2C2B2D831603135608831203130B
:10084800B80083160313550883120313B7008316E1
:100858000313540883120313B600831603135308B3
:1008680083120313B5004330B400FA30B3000030EC
:10087800B2000030B1000A128A1133200A128A111C
:10088800831203133408D2003308D1003208D00091
:100898003108CF004330CE007F30CD000030CC008F
:1008A8000030CB000A128A155E220A128A118312BE
:1008B80003134E0883160313B400831203134D0861
:1008C80083160313B300831203134C088316031310
:1008D800B200831203134B0883160313B100C3300D
:1008E800B0009630AF000030AE000030AD000A1204
:1008F8008A15F6240A128A11831603133008BC00DD
:100908002F08BB002E08BA002D08B9000A128A1158
:100918006E270A128A11831603133A0883120313E7
:10092800E30083160313390883120313E200E0017E
:10093800E1010A3083120313A8000030A9006308FC
:10094800AB006208AA000A168A1132260A128A1116
:10095800831203132808FF006008DA3E84007F082A
:10096800831380000A30A8000030A9006308AB0098
:100978006208AA000A168A118D260A128A118312A1
:1009880003132908E3002808E2000130E0070318F0
:10099800E10A0030E1076108803AFF0080307F02F9
:1009A800031DD82C03306002031CDB2CDC2C9D2C8F
:1009B80083120313AD01AD0A00300A168A117F2590
:1009C8000A128A113430FF007F0883120313B4001F
:1009D800831603135C08C300C4014308831203137E
:1009E800B50083160313440883120313B600831655
:1009F80003135B08C500C601450883120313B7003B
:100A080083160313460883120313B80083160313CF
:100A18005A08C700C801470883120313B900831690
:100A28000313480883120313BA00CC300A128A153C
:100A3800D6200A128A11CC3083120313AD0001307C
:100A4800AE000A168A1122250A128A11392E640369
:100A58006504031D302D312D392E831603135208DA
:100A680083120313B8008316031351088312031368
:100A7800B70083160313500883120313B6008316B6
:100A880003134F0883120313B5004330B400FA3040
:100A9800B3000030B2000030B1000A128A113320CE
:100AA8000A128A11831203133408D2003308D100C2
:100AB8003208D0003108CF004330CE007F30CD005F
:100AC8000030CC000030CB000A128A155E220A12D0
:100AD8008A11831203134E0883160313BC00831272
:100AE80003134D0883160313BB00831203134C082A
:100AF80083160313BA00831203134B0883160313D8
:100B0800B9000A128A116E270A128A118316031372
:100B18003A08E4003908E30083120313E001E10115
:100B28000A3083120313A8000030A90083160313A8
:100B3800640883120313AB0083160313630883123C
:100B48000313AA000A168A1132260A128A1183127E
:100B580003132808FF006008D73E84007F0883132A
:100B680080000A30A8000030A90083160313640827
:100B780083120313AB008316031363088312031352
:100B8800AA000A168A118D260A128A1183120313E3
:100B9800290883160313E400831203132808831615
:100BA8000313E300013083120313E0070318E10A7B
:100BB8000030E1076108803AFF0080307F02031DA2
:100BC800E72D03306002031CEA2DEB2D942D8312D0
:100BD8000313AD01AD0A06300A168A117F250A12E1
:100BE8008A113430FF007F0883120313B400831680
:100BF80003135908C300C401430883120313B50043
:100C080083160313440883120313B60083160313D1
:100C18005808C500C601450883120313B700831698
:100C28000313460883120313B800831603135708E7
:100C3800C700C801470883120313B90083160313BA
:100C4800480883120313BA00B8300A128A15D6204E
:100C58000A128A11B83083120313AD000130AE00B6
:100C68000A168A1122250A128A110B30FF007F0802
:100C780083120313B400831603135C08C300C40172
:100C8800430883120313B500831603134408831221
:100C98000313B600831603135B08C500C601450895
:100CA80083120313B7008316031346088312031332
:100CB800B800831603135A08C700C80147088312EF
:100CC8000313B90083160313480883120313BA00E9
:100CD800831603135908C900CA014908831203136C
:100CE800BB00831603134A0883120313BC00831640
:100CF80003135808CB00CC014B0883120313BD0023
:100D0800831603134C0883120313BE0083160313C0
:100D18005A08CD00CE014D0883120313BF00831675
:100D280003134E0883120313C000831603135E08CF
:100D380083120313C200831603135D08831203137F
:100D4800C100A4300A128A15D6200A128A11D72B9C
:100D58000A128A1112280C1FB22EB32E1C2F013032
:100D680083160313E1000030E200831203136408C2
:100D78006504031DC02EC12EDF2E1E08A000A10190
:100D8800A201A3012308F3002208F2002108F100C0
:100D98002008F00000300A128A151C200A128A1155
:100DA800730883160313D6007208D5007108D4009F
:100DB8007008D300022F64036504031DE42EE52E9A
:100DC800022F1E08A000A101A201A3012308F3001D
:100DD8002208F2002108F1002008F00000300A1271
:100DE8008A151C200A128A11730883160313D2006D
:100DF8007208D1007108D0007008CF00013083124A
:100E0800E4070318E50A0030E5070C13023064060E
:100E18006504031D102F112F132FE401E501640849
:100E2800A000A00DA00D1F082006C33920069F00B2
:100E38000C1E1F2F202F3C2F831603135F08A43E80
:100E48008400831700088312031399001430831653
:100E580003135F066004031D322F332F362FDF0183
:100E6800E0013C2F0130DF070318E00A0030E007FB
:100E780083128C1E402F412F622F1A08FF007F0813
:100E8800E6002B306606031D4A2F4B2F542F0130E6
:100E980083160313DD070318DE0A0030DE07622F0E
:100EA8002D306606031D592F5A2F622FFF308316E7
:100EB8000313DD070318DE0AFF30DE078312270855
:100EC800FF0026088A0025088400240E8300FE0EF1
:100ED8007E0E09000310831603133B0D3C0DFF0023
:100EE8007F08C2004208031D7A2F7B2F842F003011
:100EF800BC000030BB000030BA000030B900E92F58
:100F08003908BD003A08BE003B08BF003C08C000D5
:100F18001F300310C00CBF0CBE0CBD0CFF3E031DE0
:100F28008D2F3D08FF007F08C100BB17FF30B905B2
:100F3800FF30BA05FF30BB050030BC059630C20251
:100F4800C21FA72FA82FC22F4208803A973E031826
:100F5800AE2FAF2FB02F7B2F01300310BC0CBB0C72
:100F6800BA0CB90CFF3E031DB12F0130FF007F08FA
:100F7800C207031DC02FC12FB02FD92F2030420226
:100F8800031CC72FC82FD42F7B2F0130BD0003109F
:100F9800B90DBA0DBB0DBC0DBD0BCB2F0130C20274
:100FA8004208031DD82FD92FC92F41080319DD2F57
:100FB800DE2FE92FB909BA09BB09BC09B90A031917
:100FC800BA0A0319BB0A0319BC0A080083120313DF
:100FD800A900A8013A3029020318F32FF42FFC2F97
:100FE80030302902031CF92FFA2FFC2FA801A80A78
:040FF800280C0800B9
:1010080083120313AC000D3083120313AB00FB30C3
:10101800AA00AA0B0D28AB0B0D2883120313A801F5
:10102800A80A2C080A168A1198240A128A15080098
:10103800F80078080319212822283628F31F2528C4
:10104800262836287009FA007109FB007209FC008D
:101058007309FD00FA0A0319FB0A0319FC0A0319AC
:10106800FD0A3E287308FD007208FC007108FB00A9
:101078007008FA007308720471047004031D45288F
:1010880046284F280030F3000030F2000030F1000D
:101098000030F000D5289630FF007F08F90061285D
:1010A8000130FF007F08F90701300310FD0CFC0C2C
:1010B800FB0CFA0CFF3E031D5928FE307D05031D6D
:1010C80066286728542883280130FF007F08F9071D
:1010D8000130FA07003003180130FB07003003180D
:1010E8000130FC07003003180130FD070130031000
:1010F800FD0CFC0CFB0CFA0CFF3E031D7B28FF309B
:101108007D05031D88288928682895280130F9025B
:101118000130F4000310FA0DFB0DFC0DFD0DF40B6E
:101128008E28FC1B982899289F28023079020318DA
:101138009E289F288A287918A228A328AB28FF3040
:10114800FA05FF30FB057F30FC05FF30FD05031075
:10115800F90C7908F400F501F601F70118300310CD
:10116800F40DF50DF60DF70DFF3E031DB3287408B9
:10117800FA047508FB047608FC047708FD0478086F
:101188000319C728C828CD28F31FCB28CC28CD2879
:10119800FD177D08F3007C08F2007B08F1007A084F
:1011A800F000080083120313CD003530FF007F08DC
:1011B800C600472A25304E060319E328E428F028FC
:1011C8004E08FF004D0884007F0883178000013017
:1011D800FF007F08CD07472ACB01CC01C80134089E
:1011E80084000A168A110A200A128A150A128A111C
:1011F800EA270A128A15031C0229032943298312A4
:101208000313CB01CC010A3083120313A80000306A
:10121800A9004C08AB004B08AA000A168A11D22470
:101228000A128A15831203132908CC002808CB0058
:10123800340884000A168A110A200A128A15D03E38
:10124800C300FF3003180030C4004308CB0703185D
:10125800CC0A4408CC070130FF007F08B4073408E3
:1012680084000A168A110A200A128A150A128A119B
:10127800EA270A128A150318422943290729013047
:1012880083120313B407FF30340784000A168A1147
:101298000A200A128A15CE00C300C4014408003A85
:1012A80003195729472A4308003A0319592A643A67
:1012B800031962290D3A03196229472A460884004E
:1012C80083130008C900840A0008CA000230FF001E
:1012D8007F08C607CA1F712972297B290330FF00BE
:1012E8007F08C804C909CA09C90A0319CA0ACE016C
:1012F800CE0A4E08C3004307013E84000A168A112D
:101308000A200A128A15C4000A168A110A200A122B
:101318008A15C50045084A02031D94294408490254
:101328000318972998299929A3290130FF007F08D4
:10133800CE0705304E06031DA229A3297D294B0897
:101348004C040319A829A929B52948080339031900
:10135800AE29AF29B529FF30CB070318CC0AFF30D7
:10136800CC074C08803A803C031DBC294B084E0230
:101378000318BF29C029CC29831203134E08C300C0
:10138800C4014308CB024408031CCC03CC02D02977
:1013980083120313CB01CC014B084C040319D52944
:1013A800D629ED292030FF004D0884007F088317D7
:1013B80080000130FF007F08CD07FF30CB070318FE
:1013C800CC0AFF30CC074B084C04031DEC29ED294F
:1013D800D629480803390319F229F329FE292D30A3
:1013E800FF004D0884007F08831780000130FF004C
:1013F8007F08CD074E08FF007F08C7003E2A0A3045
:10140800AF000030B0004708C3004307013E840026
:101418000A168A110A200A128A15A8000A168A11C1
:101428000A200A128A15A9004A08AB004908AA002E
:101438000A168A11EC250A128A1583120313290841
:10144800B2002808B1000A168A11B0250A128A15B6
:10145800831203132F08303EFF007F08CE004E088A
:10146800FF004D0884007F08831780000130FF00CB
:101478007F08CD07FF30FF007F08C707470A031D15
:10148800462A472A032A0130B407FF30340784006C
:101498000A168A110A200A128A15FF007F08CE0050
:1014A8004E08031D582A592ADE284D088400831740
:1014B800800108008312031352088039FF007F0857
:1014C80083160313A400831203135208D30053078F
:1014D800FF007F0883160313AB0083120313D11F89
:1014E800762A772A7A2A831603132B148316031372
:1014F8002B080319802A812A942A2B0A031D852A7E
:10150800862A902A003083120313D2000030D100BB
:101518000030D0000030CF008312D117D2019E2AAC
:10152800003083120313D2000030D1000030D00005
:101538000030CF004E088039FF007F088316031360
:10154800A406831203134E08D3005307FF007F0835
:1015580083160313AC0083120313CD1FB42AB52AD4
:10156800B82A831603132C14831603132C080319A3
:10157800BE2ABF2AD22A2C0A031DC32AC42ACE2A6D
:10158800003083120313CE000030CD000030CC00B1
:101598000030CB008312CD17CE01DC2A0030831235
:1015A8000313CE000030CD000030CC000030CB005B
:1015B8004E084D044C044B04031DE32AE42A012B76
:1015C8000030D2000030D1000030D0000030CF0011
:1015D8008030D1047F30D204831603132408FF001F
:1015E8007F0883120313D2045208CE005108CD009D
:1015F8005008CC004F08CB00F52C831603132B089A
:10160800031D072B082B132B003083120313CE0066
:101618000030CD000030CC000030CB00F52C2B087A
:1016280083120313D300D4015408D600831603137E
:101638002C08831203135302D500031CD603550844
:101648007F3E83160313A50083120313560803185D
:10165800013E003E83160313A600831203135208AB
:1016680083160313A300831203135108831603136D
:10167800A20083120313500883160313A1008312D8
:1016880003134F0883160313A000003083120313BB
:10169800D2000030D1000030D0000030CF00003040
:1016A80083160313AA000030A9000030A8000030F8
:1016B800A700AC01E12B2C080319632B642B932B97
:1016C800013083120313D300031083160313A00DF4
:1016D800A10DA20DA30D83120313D30B682B0130A8
:1016E800D3000310CF0DD00DD10DD20DD30B752B18
:1016F80083160313AA1F812B822B852B83120313B6
:101708004F1401308312D300031083160313A70D5F
:10171800A80DA90DAA0D83120313D30B882B8312CE
:101728004E08831603132302031DB02B83120313E1
:101738004D08831603132202031DB02B83120313D3
:101748004C08831603132102031DB02B83120313C5
:101758004B08831603132002031CB32BB42BDD2B79
:101768002A17831203134B0883160313A00283124C
:1017780003134C08031C4C0FC22BC52B83160313F1
:10178800A102831203134D08031C4D0FCC2BCF2B42
:1017980083160313A202831203134E08031C4E0F71
:1017A800D62BD92B83160313A30283120313831694
:1017B80003130130FF007F08AC071A302C02031C0A
:1017C800E62BE72B5F2B23082204210420040319AE
:1017D800EE2BEF2B192C2714192C0130D3000310F2
:1017E800CF0DD00DD10DD20DD30BF32B83160313D0
:1017F800AA1FFF2B002C032C831203134F14013054
:101808008312D300031083160313A70DA80DA90D87
:10181800AA0D83120313D30B062CFF308316031370
:10182800A5070318A60AFF30A60783120313D11FC2
:101838001E2C1F2CF12B83160313AC01AA1F252C79
:10184800262C522CFF30270583120313D300FF30B8
:1018580083160313280583120313D400FF3083165D
:101868000313290583120313D5007F30831603134E
:101878002A0583120313D60056085504540453044A
:101888000319472C482C4D2C83160313AC01AC0AC2
:10189800522C4F1C502C512C522C482C83160313BD
:1018A8002C080319582C592C8E2C01308312031341
:1018B800CF07003003180130D0070030031801307B
:1018C800D107003003180130D207521C6C2C6D2C44
:1018D8008E2C4F08D3005008D4005108D500520868
:1018E800D6000130D700560DD60CD50CD40CD30C2D
:1018F800D70B772C5608D2005508D1005408D000D1
:101908005308CF00013083160313A5070318A60A4E
:101918000030A607831603132608803AFF0080309C
:101928007F02031D992CFF302502031C9C2C9D2C43
:10193800AD2CFF3083160313A5000030A60000303D
:1019480083120313D2000030D1000030D0000030E1
:10195800CF00831603132608803AFF0080307F02E9
:10196800031DB82C013025020318BB2CBC2CCD2C30
:1019780083160313A501A601003083120313D200B6
:101988000030D1000030D0000030CF0083160313A0
:10199800A401831603132508FF007F08AB002B1C46
:1019A800D62CD72CDB2C83120313D117E12C7F30D4
:1019B800FF007F0883120313D105831603132B0836
:1019C80083120313D3000310530CFF007F08D200C7
:1019D800831603132408FF007F0883120313D2041D
:1019E800F82A08008316031330088039FF007F089F
:1019F800B500300883120313D8005807FF007F088A
:101A080083160313B700AF1F0A2D0B2D0C2D3714A7
:101A180037080319102D112D212D370A031D152DF7
:101A2800162D1E2D0030B0000030AF000030AE0083
:101A38000030AD00AF17B001292D0030B0000030E4
:101A4800AF000030AE000030AD0034088039FF0030
:101A58007F08B600360835060319332D342D352D89
:101A68003517340883120313D8005807FF007F087E
:101A780083160313B600B31F422D432D442D36148D
:101A880036080319482D492D592D360A031D4D2DA9
:101A98004E2D562D0030B4000030B3000030B20097
:101AA8000030B100B317B401612D0030B40000302C
:101AB800B3000030B2000030B10037083602031816
:101AC800662D672DAB2D351F6A2D6B2D6F2D803040
:101AD800FF007F08B5063708FF007F08B800360802
:101AE800FF007F08B7003808FF007F08B6002D0800
:101AF800FF007F08B8003108FF007F08AD003808F4
:101B0800FF007F08B1002E08FF007F08B8003208E8
:101B1800FF007F08AE003808FF007F08B2002F08DA
:101B2800FF007F08B8003308FF007F08AF003808BF
:101B3800FF007F08B3003008FF007F08B8003408B2
:101B4800FF007F08B0003808FF007F08B400B80124
:101B5800360883120313D800D9015908DB0083160D
:101B680003133708831203135802DA00031CDB033C
:101B78005B08803AFF0080307F02031DC52D1A30B4
:101B88005A02031CC82DC92D122E831603133008C0
:101B98002F042E042D04031DD22DD42D0130D52D54
:101BA8000030FF007F08B8000030B0000030AF0000
:101BB8000030AE000030AD003608FF007F08B700E7
:101BC8001A2E381CE82DE92DF62D38088312031338
:101BD800D8000310580C0138FF007F088316031340
:101BE800B800F82D0310B80C2D1CFB2DFC2DFD2D75
:101BF800B817013083120313D80083160313300D6E
:101C0800B00CAF0CAE0CAD0C83120313D80B012E25
:101C18000130FF007F0883160313B70783160313E9
:101C280036083702031C192E1A2EE52D351B1D2EDA
:101C38001E2E752E3708031D222E232E2C2E003023
:101C4800B0000030AF000030AE000030AD00FF2F14
:101C58003108AD07320803110318013E0319352E68
:101C6800AE07330803110318013E03193C2EAF07D2
:101C7800340803110318013E0319432EB007301C22
:101C8800462E472E652F381C4A2E4B2E582E3808C4
:101C980083120313D8000310580C0138FF007F0883
:101CA80083160313B8005A2E0310B80C2D1C5D2E92
:101CB8005E2E5F2EB817013083120313D8008316E7
:101CC8000313300DB00CAF0CAE0CAD0C8312031324
:101CD800D80B632E0130FF007F0883160313B70764
:101CE800652F3008803AFF003408803A7F02031DD0
:101CF800872E33082F02031D872E32082E02031D5C
:101D0800872E31082D0203188A2E8B2E172FFF30AD
:101D180083120313D800FF30D900FF30DA00FF30F8
:101D2800DB0083160313310883120313DC008316C8
:101D38000313320883120313DD00831603133308D9
:101D480083120313DE00831603133408831203136C
:101D5800DF00831603132D0883120313DC02831696
:101D680003132E08031C2E0FBA2EBD2E8312031345
:101D7800DD02831603132F08031C2F0FC42EC72E52
:101D880083120313DE02831603133008031C300F7B
:101D9800CE2ED12E83120313DF0283160313831270
:101DA80003135C08D8075D0803185D0FDC2EDD2ED1
:101DB800D9075E0803185E0FE22EE32EDA075F08E4
:101DC80003185F0ADB075B0883160313B00083124E
:101DD80003135A0883160313AF0083120313590819
:101DE80083160313AE0083120313580883160313D4
:101DF800AD008030FF007F08B506B809B80A38087A
:101E0800031D072F082F252F0130AD0700300318B9
:101E18000130AE07003003180130AF070030031857
:101E28000130B007252F3108AD023208031C320FEC
:101E3800AE023308031C330FAF023408031C340FFF
:101E4800B00230082F042E042D04031D2C2F2D2F33
:101E5800612F3808031D312F322F612F0030B00059
:101E68000030AF000030AE000030AD00FF2F013071
:101E780083120313D800031083160313AD0DAE0DA0
:101E8800AF0DB00D83120313D80B3F2F8316031326
:101E9800B81F4F2F502F512F2D14381C542F552F4A
:101EA800582F0314B80D5A2F0310B80D370803190B
:101EB8005E2F5F2F612F0130B702AF1F642F652F90
:101EC8003B2FB601B81F692F6A2F782F38087F3942
:101ED80003196F2F702F732FB601B60A782F2D1C98
:101EE800762F772F782F702F360803197C2F7D2FA8
:101EF800CD2F0130AD07003003180130AE07003098
:101F080003180130AF07003003180130B007301C48
:101F18008E2F8F2FCD2F2D0883120313D8008316F1
:101F280003132E0883120313D900831603132F08F3
:101F380083120313DA008316031330088312031382
:101F4800DB000130DC005B0DDB0CDA0CD90CD80CA3
:101F5800DC0BA72F5B0883160313B000831203134F
:101F68005A0883160313AF00831203135908831604
:101F78000313AE0083120313580883160313AD002E
:101F8800370A0319C82FC92FCD2F0130FF007F084A
:101F9800B707370A0319D12FD22FD72F3708031DB8
:101FA800D62FD72FE52F0030B0000030AF0000301B
:101FB800AE000030AD003708031DE32FE42FE52FF6
:101FC800B501371CE82FE92FEB2FAF17EF2F7F3024
:101FD800FF007F08AF05370883120313D8000310EA
:101FE800580CFF007F0883160313B000B51FFD2FA0
:101FF800FE2FFF2FB0170800FF1B0A2883137F1836
:1020080083170008840A0319FF0A080010308A00A1
:102018000408840A82070034013400340A34003486
:1020280064340034E83403341034273425346934F4
:102038002E34253469342534693456342034253413
:1020480069342E34253469342534693456342034BF
:10205800253469340D340A3400342034533431348F
:102068003A34203420342034533432343A3420344F
:1020780020342034533433343A3420340034253473
:1020880069342E342534693425346934563400349F
:082098002534333469340034AF
:1028FC008B170B17831603138C160C160800640029
:10290C008001840A0406031900340406862C8316FD
:10291C0003130C178130831203139F0083160313C8
:10292C009F01080083120313A900880108082904D9
:10293C008800280C031C09100318091409118914A8
:10294C0089100800033083160317880089010330AF
:10295C0083160313850089018601880183120313F2
:10296C008501860188018901080083120313AC00DC
:10297C000D3083120313AB00FB30AA00AA0BC42C3E
:10298C00AB0BC42C83120313A8012C080A168A1152
:10299C0098240A168A11080083120313AC01AD01A6
:1029AC00281CD92CDA2CE02C2A08AC070318AD0A09
:1029BC002B08AD0701300310AA0DAB0DFF3E031D14
:1029CC00E12C01300310A90CA80CFF3E031DE82CD0
:1029DC0028082904031DF32CF42CD62C2D08A9004F
:1029EC002C08A800080083120313B000AC01AD0141
:1029FC002808AA00AB012A08AE002B08AF00301C37
:102A0C00082D092D0F2D2E08AC070318AD0A2F0821
:102A1C00AD0701300310AE0DAF0DFF3E031D102DA1
:102A2C000310B00C3008031D1C2D1D2D052D2D0879
:102A3C00A9002C08A800080083120313AF013D2D38
:102A4C002F082D0784002E0803182E0AFF000A16E3
:102A5C008A1100200A168A110A128A1504200A16F5
:102A6C008A110130FF007F0883120313AF072F0870
:102A7C002D0784002E0803182E0AFF000A168A114F
:102A8C0000200A168A11003A031D4D2D4E2D262DBD
:102A9C00080083120313880183160313880127305F
:102AAC0083120313AE00F430AD00AD0B5B2DAE0BF7
:102ABC005B2D000032300A168A11BB240A168A11CB
:102ACC0038300A168A11BB240A168A110C300A16E1
:102ADC008A11BB240A168A1101300A168A11BB24EA
:102AEC000A168A1106300A168A11BB240A168A1194
:102AFC00080083120313B20002302D020318872D35
:102B0C00882DAF2D10303202031C8D2D8E2D8F2D64
:102B1C00AF2D2D030319932D942D9A2D8030320453
:102B2C00B0000030B1009F2DC0303204B000003036
:102B3C00B10030080A168A11BB240A168A110D300E
:102B4C0083120313AF00FB30AE00AE0BAB2DAF0BFB
:102B5C00AB2D0800831203132F0830040319B72D73
:102B6C00B82DE72DB301B30AC62D01300310AF0DFC
:102B7C00B00DFF3E031DBC2D0130FF007F08B307D5
:102B8C00B01FC92DCA2DBB2D30083202031DD02D0C
:102B9C002F083102031CD32DD42DDA2D2F08B102AE
:102BAC003008031CB203B20201300310B00CAF0C9E
:102BBC00FF3E031DDB2D0130B302031DE62DE72D77
:102BCC00CA2D3208B0003108AF000800831203137D
:102BDC00AC01AD01280829040319F52DF62D2D2E75
:102BEC00AE01AE0A042E01300310A80DA90DFF3E54
:102BFC00031DFA2D0130FF007F08AE07A91F072E19
:102C0C00082EF92D01300310AC0DAD0DFF3E031D48
:102C1C00092E29082B02031D152E28082A02031C35
:102C2C00182E192E202E2808AA022908031CAB03E3
:102C3C00AB022C1401300310A90CA80CFF3E031D91
:102C4C00212E0130AE02031D2C2E2D2E082E2D0808
:102C5C00A9002C08A800080083120313AD01AB1FB8
:102C6C00382E392E402EAA09AB09AA0A0319AB0A31
:102C7C00AD01AD0AA91F432E442E492EA809A9095E
:102C8C00A80A0319A90A2808290403194E2E4F2E45
:102C9C007E2EAC01AC0A5D2E01300310A80DA90DDF
:102CAC00FF3E031D532E0130FF007F08AC07A91F08
:102CBC00602E612E522E29082B02031D672E280828
:102CCC002A02031C6A2E6B2E712E2808AA022908D0
:102CDC00031CAB03AB0201300310A90CA80CFF3E84
:102CEC00031D722E0130AC02031D7D2E7E2E612E33
:102CFC002D080319822E832E882EAA09AB09AA0A45
:102D0C000319AB0A2B08A9002A08A8000800831293
:102D1C000313AD01A91F932E942E9B2EA809A9096C
:102D2C00A80A0319A90AAD01AD0AAB1F9E2E9F2E4E
:102D3C00A82EAA09AB09AA0A0319AB0A0130FF0095
:102D4C007F08AD06AE01AF01280829040319AF2E88
:102D5C00B02EE72EAC01AC0ABE2E01300310A80D2C
:102D6C00A90DFF3E031DB42E0130FF007F08AC07F8
:102D7C00A91FC12EC22EB32E01300310AE0DAF0D04
:102D8C00FF3E031DC32E29082B02031DCF2E28083E
:102D9C002A02031CD22ED32EDA2E2808AA022908C6
:102DAC00031CAB03AB022E1401300310A90CA80CAE
:102DBC00FF3E031DDB2E0130AC02031DE62EE72E79
:102DCC00C22E2D080319EB2EEC2EF12EAE09AF09F5
:102DDC00AE0A0319AF0A2F08A9002E08A800080094
:102DEC002030831603139800831603178711903035
:102DFC008312031398003708BB003808BC0039084D
:102E0C00BD003A08BE0006300310BB0DBC0DBD0D55
:102E1C00BE0DFF3E031D0A2F3E08AB003D08AA0065
:102E2C003C08A9003B08A8003708BF003808C000C0
:102E3C003908C1003A08C20006300310BF0DC00D9E
:102E4C00C10DC20DFF3E031D232F0030C3001230F5
:102E5C00C4007A30C5000030C6003F08C3024008E9
:102E6C00031C400F3A2F3B2FC4024108031C410F97
:102E7C00402F412FC5024208031C420F462F472FFB
:102E8C00C6024608AF004508AE004408AD00430832
:102E9C00AC000A168A1163270A168A1183120313CF
:102EAC002B08CA002A08C9002908C8002808C7002E
:102EBC004708831603139900080083120313B20109
:102ECC00AB1F692F6A2F772FA809A909AA09AB098B
:102EDC00A80A0319A90A0319AA0A0319AB0AB20111
:102EEC00B20AAF1F7A2F7B2F8A2FAC09AD09AE091E
:102EFC00AF09AC0A0319AD0A0319AE0A0319AF0ADC
:102F0C000130FF007F08B2060030B6000030B5007B
:102F1C000030B4000030B3002B082A042904280424
:102F2C000319992F9A2FE72FB101B10AAA2F01305B
:102F3C00B0000310A80DA90DAA0DAB0DB00B9F2F5F
:102F4C000130FF007F08B107AB1FAD2FAE2F9D2FB7
:102F5C000130B0000310B30DB40DB50DB60DB00BB0
:102F6C00B02F2B082F02031DC52F2A082E02031D7C
:102F7C00C52F29082D02031DC52F28082C02031C60
:102F8C00C82FC92FD82F2808AC022908031C290FD9
:102F9C00AD022A08031C2A0FAE022B08031C2B0FB0
:102FAC00AF02331401300310AB0CAA0CA90CA80C03
:102FBC00FF3E031DD92F0130B102031DE62FE72F71
:102FCC00AE2F32080319EB2FEC2FF72FB309B409EE
:102FDC00B509B609B30A0319B40A0319B50A0319DA
:102FEC00B60A3608AB003508AA003408A900330825
:042FFC00A800080021
:04400E00D723FF3F76
:00000001FF
