:020000040000FA
:100000000A128A11FC2F00308A000408840A820731
:10001000003468346F346C34613420346D3475349A
:080020006E3464346F340034C7
:100E1000F000700883120313880008008B170B176B
:100E2000831603138C160800831603130C178130E6
:100E3000831203139F00831603139F0108000330DE
:100E40008316031788008901033083160313850076
:100E500086018701880183120313850186018701BA
:100E600088010800F20083120313061772080A12A1
:100E70008A1108270A128A118312031386171A305F
:100E8000F100F10B412F00008312031386130800B9
:100E9000F30083120313061373080A128A1108273A
:100EA0000A128A118312031386170B30F200623084
:100EB000F100F10B592FF20B592F0000831203138D
:100EC00086130800F500F301F401792F7308750704
:100ED00084000A128A1103200A128A110A128A1146
:100EE00032270A128A110130F3070318F40A00307E
:100EF000F4077308750784000A128A1103200A1286
:100F00008A11003A031D852F862F662F08000A12CA
:100F10008A111F270A128A110A128A110E270A1231
:100F20008A110A128A1114270A128A111030F60047
:100F3000F60B982F00000A128A11B1270A128A11A3
:100F40001D30F7009130F600F60BA42FF70BA42FFD
:100F500001300A128A1162270A128A110A128A11B2
:100F6000002800300A128A1108270A128A11343028
:100F7000F500F130F400F40BBB2FF50BBB2FC02FA5
:100F800030300A128A1148270A128A110D30F500F2
:100F9000FB30F400F40BCA2FF50BCA2FCF2F3030E3
:100FA0000A128A1148270A128A112730F500F530F3
:100FB000F400F40BD92FF50BD92F30300A128A1117
:100FC00048270A128A113C300A128A1148270A124D
:100FD0008A1108300A128A1148270A128A11013030
:100FE0000A128A1148270A128A1107300A128A1136
:100FF00048270A128A11080083010A128A11872FD2
:04400E00D723FF3F76
:00000001FF
