:020000040000FA
:060000000A128A110C280F
:10000800FE00030EF2000A08F3000A128A11312AD0
:100018000A128A110F28F701F801F9018312031354
:10002800C201C301C401C501C601C701C801C90194
:10003800CA01CB01CC01CD0183010A128A11C12862
:1000480083120313A901A31F2A282B283828A009E3
:10005800A109A209A309A00A0319A10A0319A20A5E
:100068000319A30AA901A90AA71F3B283C284B2862
:10007800A409A509A609A709A40A0319A50A031929
:10008800A60A0319A70A0130F4007408A90600306B
:10009800AD000030AC000030AB000030AA002308EF
:1000A80022042104200403195A285B28A828A8013F
:1000B800A80A6B280130F4000310A00DA10DA20DB1
:1000C800A30DF40B60280130F4007408A807A31FDF
:1000D8006E286F285E280130F4000310AA0DAB0DBE
:1000E800AC0DAD0DF40B712823082702031D8628DB
:1000F80022082602031D862821082502031D8628BA
:1001080020082402031C89288A2899282008A40288
:100118002108031C210FA5022208031C220FA60296
:100128002308031C230FA7022A1401300310A30C71
:10013800A20CA10CA00CFF3E031D9A280130A802B6
:10014800031DA728A8286F2829080319AC28AD285B
:10015800B828AA09AB09AC09AD09AA0A0319AB0A60
:100168000319AC0A0319AD0A2D08A3002C08A20034
:100178002B08A1002A08A00008000A128A115E2292
:100188000A128A11003083120313B1000030B00044
:100198002530AF008030AE000A128A1154210A12AD
:1001A8008A11831203134C034D04031DDC28DD2838
:1001B800DE28091002304C064D04031DE428E5280A
:1001C800E628091403304C064D04031DEC28ED28DD
:1001D800EE28891004304C064D04031DF428F52838
:1001E800F62889143230A4000030A5000A128A11BA
:1001F800C1210A128A11831203132408F600760813
:10020800C2003330A4000030A5000A128A11C121AF
:100218000A128A11831203132408F6007608C30011
:100228003430A4000030A5000A128A11C1210A1234
:100238008A11831203132408F6007608C4003530A7
:10024800A4000030A5000A128A11C1210A128A11DD
:10025800831203132408F6007608C5003630A4007C
:100268000030A5000A128A11C1210A128A118312CC
:1002780003132408F6007608C6003730A4000030BF
:10028800A5000A128A11C1210A128A1183120313C6
:100298002408F6007608C700D5280A128A110C2807
:1002A80020308316031398008316031787119030A4
:1002B8008312031398002E08B2002F08B3003008E9
:1002C800B4003108B50006300310B20DB30DB40DFB
:1002D800B50DFF3E031D68293508A3003408A200A8
:1002E8003308A1003208A0002E08B6002F08B70076
:1002F8003008B8003108B90006300310B60DB70D44
:10030800B80DB90DFF3E031D81290030BA00123027
:10031800BB007A30BC000030BD003608BA0237088E
:10032800031C370F98299929BB023808031C380F7A
:100338009E299F29BC023908031C390FA429A52925
:10034800BD023D08A7003C08A6003B08A5003A08E6
:10035800A4000A128A1124200A128A118312031394
:100368002308C1002208C0002108BF002008BE00E1
:100378003E0883160313990008000A128A11A32263
:100388000A128A11A630F4000030F5000A128A1108
:1003980090220A128A11831203132508F5002408F3
:1003A800F4000A128A1190220A128A110A128A117A
:1003B800A3220A128A11A730F4000030F5000A12AD
:1003C8008A1190220A128A110030F400F5000A12EC
:1003D8008A1102220A128A11750883120313A700D0
:1003E8007408A6000A128A119A220A128A11831224
:1003F80003132708A5002608A40008000A128A117A
:1004080083220A128A118316031391150A128A117C
:1004180083220A128A11831203131308A000A10170
:100428002008A2002108A3000A128A1183220A12B6
:100438008A11740875040319222A262A83160313BD
:100448009116292A83160313911211168312031386
:100458002308F5002208F4000800831203130C1E79
:10046800362A372A4A2A7908990005304806490465
:10047800031D3F2A402A432AC801C9014C2A0130DA
:10048800C8070318C90A0030C9074C2A4230990026
:100498008C1E4F2A502A572A1A08F000F1017008BA
:1004A800CC007108CD0073088A00720E8300FE0E1E
:1004B8007E0E09008316031788018901831603132A
:1004C80085018312031385018316031386018312A2
:1004D800031386018316031388018312031388010B
:1004E80083160313890183120313890183160313E7
:1004F80087138B170B178C160C169601080083169A
:1005080003131419882A892A832A11081F39031DFD
:100518008E2A8F2A832A08000A128A1183220A1235
:100528008A11740883120313930008000A128A11AF
:1005380083220A128A1183160313111508000A125E
:100548008A1183220A128A118316031311140800D0
:04400E00C420FF3F8C
:00000001FF
