:020000040000FA
:060000000A128A110C280F
:10000800FE00030EF1000A08F2000A128A116029A4
:100018000A128A110F28F801F901FA018312031351
:10002800BE01BF01C00183010A128A11252983126A
:100038000313A901A31F212822282F28A009A109F9
:10004800A209A309A00A0319A10A0319A20A0319FC
:10005800A30AA901A90AA71F322833284228A409FC
:10006800A509A609A709A40A0319A50A0319A60A36
:100078000319A70A0130F3007308A9060030AD0080
:100088000030AC000030AB000030AA002308220486
:10009800210420040319512852289F28A801A80ADE
:1000A80062280130F3000310A00DA10DA20DA30DCD
:1000B800F30B57280130F3007308A807A31F65281E
:1000C800662855280130F3000310AA0DAB0DAC0DBE
:1000D800AD0DF30B682823082702031D7D2822088D
:1000E8002602031D7D2821082502031D7D282008DE
:1000F8002402031C8028812890282008A4022108B3
:10010800031C210FA5022208031C220FA6022308A4
:10011800031C230FA7022A1401300310A30CA20CFE
:10012800A10CA00CFF3E031D91280130A802031D5D
:100138009E289F28662829080319A328A428AF28E1
:10014800AA09AB09AC09AD09AA0A0319AB0A031934
:10015800AC0A0319AD0A2D08A3002C08A2002B082D
:10016800A1002A08A0000800203083160313980075
:1001780083160317871190308312031398002E08F3
:10018800B2002F08B3003008B4003108B5000630BB
:100198000310B20DB30DB40DB50DFF3E031DCC28F1
:1001A8003508A3003408A2003308A1003208A000D3
:1001B8002E08B6002F08B7003008B8003108B9007B
:1001C80006300310B60DB70DB80DB90DFF3E031D6F
:1001D800E5280030BA001230BB007A30BC0000308D
:1001E800BD003608BA023708031C370FFC28FD2863
:1001F800BB023808031C380F02290329BC0239083E
:10020800031C390F08290929BD023D08A7003C082D
:10021800A6003B08A5003A08A4000A128A111B2070
:100228000A128A11831203132308F7002208F60022
:100238002108F5002008F4007408831603139900B8
:1002480008000A128A1177210A128A1100308312D3
:100258000313B1000030B0002530AF008030AE008D
:100268000A128A11B8200A128A1183120313400352
:10027800031D3F2940294229091039290230400627
:10028800031D472948294A290914392903304006FA
:10029800031D4F2950295229891039290430400655
:1002A800031D572958295A298914392909108910F1
:1002B80039290A128A110C28831203130C1E652986
:1002C800662968297A0899008C1E6B296C2970297F
:1002D8001A08F0007008C00072088A00710E8300C6
:1002E800FE0E7E0E09008316031788018901831606
:1002F800031389018312031389018B170B178316C4
:0803080003138C160C1608000B
:04400E00C420FF3F8C
:00000001FF
