:020000040000FA
:060000000A128A110C280F
:10000800FE00030EF8000A08F9000A128A11652991
:100018000A128A110F28F001F101F201F301F4012B
:1000280083120313C301C40183010A128A1126290A
:1000380083120313AA01A31F222823283028A0090A
:10004800A109A209A309A00A0319A10A0319A20A6E
:100058000319A30AAA01AA0AA71F33283428432888
:10006800A409A509A609A709A40A0319A50A031939
:10007800A60A0319A70A0130A8002808AA06003012
:10008800AE000030AD000030AC000030AB002308FB
:10009800220421042004031952285328A028A90166
:1000A800A90A63280130A8000310A00DA10DA20D14
:1000B800A30DA80B58280130A8002808A907A31FDA
:1000C8006628672856280130A8000310AB0DAC0D30
:1000D800AD0DAE0DA80B692823082702031D7E2845
:1000E80022082602031D7E2821082502031D7E28DA
:1000F80020082402031C8128822891282008A402B1
:100108002108031C210FA5022208031C220FA602A6
:100118002308031C230FA7022B1401300310A30C80
:10012800A20CA10CA00CFF3E031D92280130A902CD
:10013800031D9F28A02867282A080319A428A52892
:10014800B028AB09AC09AD09AE09AB0A0319AC0A72
:100158000319AD0A0319AE0A2E08A3002D08A20040
:100168002C08A1002B08A0000800203083160313D8
:100178009800831603178711903083120313980091
:100188002F08B3003008B4003108B5003208B600B3
:1001980006300310B30DB40DB50DB60DFF3E031DAB
:1001A800CD283608A3003508A2003408A10033087A
:1001B800A0002F08B7003008B8003108B90032088D
:1001C800BA0006300310B70DB80DB90DBA0DFF3ED1
:1001D800031DE6280030BB001230BC007A30BD0099
:1001E8000030BE003708BB023808031C380FFD2852
:1001F800FE28BC023908031C390F03290429BD0253
:100208003A08031C3A0F09290A29BE023E08A7002A
:100218003D08A6003C08A5003B08A4000A128A1164
:100228001C200A128A11831203132308C200220811
:10023800C1002108C0002008BF003F08831603132F
:10024800990008000A128A118E210A128A110030B8
:1002580083120313B2000030B1002530B0008030A3
:10026800AF000A128A11B9200A128A1183120313E5
:1002780043034404031D41294229442909103A290A
:10028800023043064404031D4A294B294D29091409
:100298003A29033043064404031D53295429562997
:1002A80089103A29043043064404031D5C295D295A
:1002B8005F2989143A29091089103A290A128A11E2
:1002C8000C288312031308150C1E6B296C296E2940
:1002D800740899008C1E7129722987291A08F5005B
:1002E800F6017508C3007608C40008110630F70047
:1002F8001330F600AD30F500F50B8029F60B802998
:10030800F70B8029872979088A00780E8300FE0E6A
:100318007E0E0900831603178801890183160313CB
:10032800880183120313880183160313890183123A
:10033800031389018316031387138B170B178C1666
:040348000C16080087
:04400E00C420FF3F8C
:00000001FF
