:020000040000FA
:060000000A128A110C280F
:10000800FE00030EF2000A08F3000A128A11A22960
:100018000A128A110F28F601F701F801F901831273
:100028000313C301C401C501C601C701C801C90141
:10003800CA01CB01CC01CD0183010A128A11C12862
:1000480083120313A901A31F2A282B283828A009E3
:10005800A109A209A309A00A0319A10A0319A20A5E
:100068000319A30AA901A90AA71F3B283C284B2862
:10007800A409A509A609A709A40A0319A50A031929
:10008800A60A0319A70A0130F4007408A90600306B
:10009800AD000030AC000030AB000030AA002308EF
:1000A80022042104200403195A285B28A828A8013F
:1000B800A80A6B280130F4000310A00DA10DA20DB1
:1000C800A30DF40B60280130F4007408A807A31FDF
:1000D8006E286F285E280130F4000310AA0DAB0DBE
:1000E800AC0DAD0DF40B712823082702031D8628DB
:1000F80022082602031D862821082502031D8628BA
:1001080020082402031C89288A2899282008A40288
:100118002108031C210FA5022208031C220FA60296
:100128002308031C230FA7022A1401300310A30C71
:10013800A20CA10CA00CFF3E031D9A280130A802B6
:10014800031DA728A8286F2829080319AC28AD285B
:10015800B828AA09AB09AC09AD09AA0A0319AB0A60
:100168000319AC0A0319AD0A2D08A3002C08A20034
:100178002B08A1002A08A00008000A128A115E2292
:100188000A128A11003083120313B1000030B00044
:100198002530AF008030AE000A128A1135210A12CC
:1001A8008A11323083120313A4000030A5000A120A
:1001B8008A11EE210A128A11831203132408C2003D
:1001C8004208C3003330A4000030A5000A128A1187
:1001D800EE210A128A11831203132408C20042086E
:1001E800C4003430A4000030A5000A128A11EE21A0
:1001F8000A128A11831203132408C2004208C50098
:100208003530A4000030A5000A128A11EE210A1226
:100218008A11831203132408C2004208C60036302C
:10022800A4000030A5000A128A11EE210A128A11D0
:10023800831203132408C2004208C7003730A40001
:100248000030A5000A128A11EE210A128A118312BF
:1002580003132408C2004208C800D5280A128A11CC
:100268000C28203083160313980083160317871170
:1002780090308312031398002E08B2002F08B300A1
:100288003008B4003108B50006300310B20DB30DC4
:10029800B40DB50DFF3E031D49293508A3003408E8
:1002A800A2003308A1003208A0002E08B6002F08CB
:1002B800B7003008B8003108B90006300310B60D91
:1002C800B70DB80DB90DFF3E031D62290030BA0005
:1002D8001230BB007A30BC000030BD003608BA02CC
:1002E8003708031C370F79297A29BB023808031C01
:1002F800380F7F298029BC023908031C390F85294A
:100308008629BD023D08A7003C08A6003B08A500B9
:100318003A08A4000A128A1124200A128A118312A8
:1003280003132308C1002208C0002108BF002008C9
:10033800BE003E08831603139900080083120313B6
:100348000C1EA729A829BB29790899000530490658
:100358004A04031DB029B129B429C901CA01BD291C
:100368000130C9070318CA0A0030CA07BD2942303C
:1003780099008C1EC029C129E7291A08F000F1014B
:100388007008F6007108F70076037704031DCD297D
:10039800CE29CF290910023076067704031DD52906
:1003A800D629D7290914033076067704031DDD29D9
:1003B800DE29DF298910043076067704031DE52934
:1003C800E629E729891473088A00720E8300FE0E55
:1003D8007E0E09000A128A11A7220A128A11A63073
:1003E800F4000030F5000A128A1194220A128A11C8
:1003F800831203132508F5002408F4000A128A1151
:1004080094220A128A110A128A11A7220A128A1140
:10041800A730F4000030F5000A128A1194220A125B
:100428008A110030F400F5000A128A112F220A12EC
:100438008A11750883120313A7007408A6000A120C
:100448008A119E220A128A11831203132708A50013
:100458002608A40008000A128A1187220A128A11A3
:100468008316031391150A128A1187220A128A1118
:10047800831203131308A000A1012008A200210879
:10048800A3000A128A1187220A128A1174087504B5
:1004980003194F2A532A831603139116562A8316D3
:1004A800031391121116831203132308F50022086F
:1004B800F40008007030831603138F0483160317A3
:1004C80088018901831603138501831203138501AB
:1004D80083160313860183120313860183160313FD
:1004E8008801831203138801831603138901831279
:1004F800031389018316031387138B170B178C16A5
:100508000C16960108008316031314198C2A8D2AD9
:10051800872A11081F39031D922A932A872A08005F
:100528000A128A1187220A128A1174088312031385
:10053800930008000A128A1187220A128A11831668
:100548000313111508000A128A1187220A128A1148
:080558008316031311140800BF
:04400E00C420FF3F8C
:00000001FF
