:020000040000FA
:060000000A128A11FC2F18
:100D9E0083160317880189018316031389018312B1
:100DAE000313890108000A128A11CF260A128A112A
:100DBE00003083120313A9000030A8002530A700CD
:100DCE008030A6000A128A11F4260A128A118312A2
:100DDE00031389140A128A11002820308316031374
:100DEE00980083160317871190308312031398000F
:100DFE002608AA002708AB002808AC002908AD0079
:100E0E0006300310AA0DAB0DAC0DAD0DFF3E031D4C
:100E1E00082F2D08F3002C08F2002B08F1002A08E9
:100E2E00F0002608AE002708AF002808B0002908F9
:100E3E00B10006300310AE0DAF0DB00DB10DFF3E7B
:100E4E00031D212F0030B2001230B3007A30B400EF
:100E5E000030B5002E08B2022F08031C2F0F382FBA
:100E6E00392FB3023008031C300F3E2F3F2FB40230
:100E7E003108031C310F442F452FB5023508F700FA
:100E8E003408F6003308F5003208F4000A128A110D
:100E9E005F270A128A117308FC007208FB007108A2
:100EAE00FA007008F90079088316031399000800F8
:100EBE0083120313A101F31F652F662F732FF00901
:100ECE00F109F209F309F00A0319F10A0319F20AFA
:100EDE000319F30AA101A10AF71F762F772F862F88
:100EEE00F409F509F609F709F40A0319F50A0319C5
:100EFE00F60A0319F70A0130FF007F08A106003039
:100F0E00A5000030A4000030A3000030A20073083A
:100F1E007204710470040319952F962FE32FA0010C
:100F2E00A00AA62F0130F8000310F00DF10DF20DFE
:100F3E00F30DF80B9B2F0130FF007F08A007F31F66
:100F4E00A92FAA2F992F0130F8000310A20DA30D7F
:100F5E00A40DA50DF80BAC2F73087702031DC12F3E
:100F6E0072087602031DC12F71087502031DC12F71
:100F7E0070087402031CC42FC52FD42F7008F402FE
:100F8E007108031C710FF5027208031C720FF60232
:100F9E007308031C730FF702221401300310F30CB5
:100FAE00F20CF10CF00CFF3E031DD52F0130A00208
:100FBE00031DE22FE32FAA2F21080319E72FE82F95
:100FCE00F32FA209A309A409A509A20A0319A30ACA
:100FDE000319A40A0319A50A2508F3002408F20030
:100FEE002308F1002208F000080083010A128A117A
:020FFE00DA2EE9
:04400E00C420FF3F8C
:00000001FF
