:020000040000FA
:060000000A128A1110280B
:10000800FE00030E83120313A4000A08A5007F084C
:10001800A6000A128A11DA280A128A1113288312F2
:100028000313A801A901AA01AB01AC01AD01AE01FE
:1000380083010A128A112829F8007808031925284B
:1000480026283A28F31F29282A283A287009FA006E
:100058007109FB007209FC007309FD00FA0A031913
:10006800FB0A0319FC0A0319FD0A42287308FD005C
:100078007208FC007108FB007008FA00730872042B
:1000880071047004031D49284A2853280030F300DE
:100098000030F2000030F1000030F000D92896302E
:1000A800FF007F08F90065280130FF007F08F90785
:1000B80001300310FD0CFC0CFB0CFA0CFF3E031D79
:1000C8005D28FE307D05031D6A286B28582887287F
:1000D8000130FF007F08F9070130FA0700300318E4
:1000E8000130FB07003003180130FC07003003180B
:1000F8000130FD0701300310FD0CFC0CFB0CFA0C61
:10010800FF3E031D7F28FF307D05031D8C288D28A9
:100118006C2899280130F9020130F4000310FA0D17
:10012800FB0DFC0DFD0DF40B9228FC1B9C289D2853
:10013800A328023079020318A228A3288E28791848
:10014800A628A728AF28FF30FA05FF30FB057F3027
:10015800FC05FF30FD050310F90C7908F400F501E2
:10016800F601F70118300310F40DF50DF60DF70D33
:10017800FF3E031DB7287408FA047508FB047608C7
:10018800FC047708FD0478080319CB28CC28D1286B
:10019800F31FCF28D028D128FD177D08F3007C084D
:1001A800F2007B08F1007A08F00008000C1FDD2837
:1001B800DE280D291E08A000A101A201A301230821
:1001C800F3002208F2002108F1002008F0000030B6
:1001D8000A128A1120200A128A1173088312031343
:1001E800AB007208AA007108A9007008A8001E08D0
:1001F800A000A1012008AC002108AD001630831230
:100208000313A000A00B06290000831203130C138C
:100218009F148C1D102911291F29831603131418E4
:10022800162917291B298312031313088800831220
:100238002E0893008C112608FF0025088A00240E3A
:100248008300FE0E7E0E09000A128A1155210A1239
:100258008A1183120313AC01AD010A128A114421D9
:100268000A128A11163083120313A700A70B3A2922
:100278000000831203139F1440290A128A111028C0
:100288000130831603178800890121308316031370
:100298008500860188018312031385018601880180
:1002A80008008B170B17831603138C160C160C17E4
:1002B8008130831203139F00831603139F010800E4
:04400E00D723FF3F76
:00000001FF
