:020000040000FA
:060000000A128A1110280B
:10000800FE00030EF9000A08FA00831203137F08A2
:10001800FB000A128A111E280A128A111328F001FD
:10002800F101F201F301F401F501F60183010A126D
:100038008A114E280C1F212822282E281E08FF006E
:100048007F08F6001730F700F70B282883120313F0
:100058000C139F148C1D312832284528831603134E
:10006800141C372838284128831203131308F70073
:10007800F8017708F4007808F500760883129300F1
:100088008C117B08FF007A088A00790E8300FE0E27
:100098007E0E09000A128A118A200A128A110A128F
:1000A8008A1179200A128A110A128A1168200A1202
:1000B8008A111730FC00FC0B5F28831203139F146E
:1000C80064280A128A1110288316031387158712C9
:1000D80085162430831203139400831603139401A6
:1000E8008C15831203138C11080001308316031733
:1000F8008800890121308316031385008601880151
:100108008312031385018601880108008B170B17DA
:10011800831603138C160C160C17813083120313E5
:0A0128009F00831603139F010800D7
:04400E00D723FF3F76
:00000001FF
