:020000040000FA
:060000000A128A1110280B
:10000800FE00030E83120313A4000A08A5007F084C
:10001800A6000A128A11D9280A128A1113288312F3
:100028000313A701A801A901AA01AB01AC0183012F
:100038000A128A111529F800780803192428252896
:100048003928F31F2828292839287009FA00710946
:10005800FB007209FC007309FD00FA0A0319FB0A88
:100068000319FC0A0319FD0A41287308FD007208E8
:10007800FC007108FB007008FA0073087204710430
:100088007004031D4828492852280030F300003026
:10009800F2000030F1000030F000D8289630FF0060
:1000A8007F08F90064280130FF007F08F907013054
:1000B8000310FD0CFC0CFB0CFA0CFF3E031D5C2826
:1000C800FE307D05031D69286A28572886280130D7
:1000D800FF007F08F9070130FA07003003180130E4
:1000E800FB07003003180130FC070030031801300B
:1000F800FD0701300310FD0CFC0CFB0CFA0CFF3E55
:10010800031D7E28FF307D05031D8B288C286B2856
:1001180098280130F9020130F4000310FA0DFB0DA4
:10012800FC0DFD0DF40B9128FC1B9B289C28A22894
:10013800023079020318A128A2288D287918A52849
:10014800A628AE28FF30FA05FF30FB057F30FC05F6
:10015800FF30FD050310F90C7908F400F501F601EC
:10016800F70118300310F40DF50DF60DF70DFF3EED
:10017800031DB6287408FA047508FB047608FC0405
:100188007708FD0478080319CA28CB28D028F31F5C
:10019800CE28CF28D028FD177D08F3007C08F20070
:1001A8007B08F1007A08F00008000C1FDC28DD2825
:1001B8000C291E08A000A101A201A3012308F30035
:1001C8002208F2002108F1002008F00000300A128D
:1001D8008A111F200A128A11730883120313AA00B6
:1001E8007208A9007108A8007008A7001E08A000DE
:1001F800A1012008AB002108AC00163083120313BC
:10020800A000A00B05290000831203130C139F14F0
:100218002608FF0025088A00240E8300FE0E7E0EA5
:1002280009000A128A113D210A128A118312031346
:10023800AB01AC010A128A112C210A128A1183120D
:1002480003139F142B08880026290A128A111028E4
:1002580001308316031788008901013083160313C0
:1002680085008601880183120313850186018801B0
:1002780008008B170B17831603138C160C160C1714
:100288008130831203139F00831603139F01080014
:04400E00D723FF3F76
:00000001FF
