:020000040000FA
:060000000A128A110E280D
:10000800FE00030EF0000408F1000A08F2000A12CC
:100018008A15692B0A128A1111288313E530FD000D
:100028000B30FE005030FF00CC3084000A128A15D5
:1000380041230A128A11A0308400CC300A128A1592
:10004800D9220A128A11633084006E300A128A1586
:10005800D9220A128A11F801F901FA0183010A1258
:100068008A11742D8312031328088039FF007F0832
:10007800B2002808AD002D07FF007F08B800A71FB1
:100088004628472848283814380803194C284D288A
:100098005C28380A031D512852285A280030A80025
:1000A8000030A7000030A6000030A500A71764287C
:1000B8000030A8000030A7000030A6000030A500DE
:1000C8002C088039FF007F08B2062C08AD002D07E8
:1000D800FF007F08B700AB1F7228732874283714F5
:1000E80037080319782879288828370A031D7D28B6
:1000F8007E2886280030AC000030AB000030AA0013
:100108000030A900AB1790280030AC000030AB00DD
:100118000030AA000030A900370803199428952850
:100128009A283808031D99289A28A3280030A8007F
:100138000030A7000030A6000030A500962B250847
:10014800FF007F08F3002B080A128A158E230A1273
:100158008A11740883120313BE007308BD003D089A
:10016800AD00AE01AF01B0013008B6002F08B500F0
:100178002E08B4002D08B3003E08AD00AE01AF0153
:10018800B0013008BC002F08BB002E08BA002D08AB
:10019800B9002608FF007F08F3002A080A128A150A
:1001A8008E230A128A11740883120313BE0073087F
:1001B800BD003D08AD00AE01AF01B0012D08B30789
:1001C8002E0803110318013E0319EB28B4072F0862
:1001D80003110318013E0319F228B507300803116B
:1001E8000318013E0319F928B6073E08AD00AE0111
:1001F800AF01B0012D08B9072E0803110318013EFD
:1002080003190729BA072F0803110318013E031918
:100218000E29BB07300803110318013E03191529DD
:10022800BC072708FF007F08F30029080A128A156F
:100238008E230A128A11740883120313BE007308EE
:10024800BD003D08AD00AE01AF01B0012D08B307F8
:100258002E0803110318013E03193329B4072F0888
:1002680003110318013E03193A29B5073008031191
:100278000318013E03194129B6073E08AD00AE0137
:10028800AF01B0012D08B9072E0803110318013E6C
:1002980003194F29BA072F0803110318013E031940
:1002A8005629BB07300803110318013E03195D29BD
:1002B800BC070830AD000310B30DB40DB50DB60D75
:1002C800AD0B5F292608FF007F08F30029080A12F2
:1002D8008A158E230A128A11740883120313BE002A
:1002E8007308BD003D08AD003E08AE00AF01B00187
:1002F8002D08B3072E0803110318013E0319852999
:10030800B4072F0803110318013E03198C29B507F8
:10031800300803110318013E03199329B60725086D
:10032800FF007F08F3002A080A128A158E230A1292
:100338008A11740883120313BE007308BD003D08B8
:10034800AD003E08AE00AF01B0012D08B3072E087E
:1003580003110318013E0319B229B4072F0803112A
:100368000318013E0319B929B5073008031103180A
:10037800013E0319C029B6070830AD000310B30DBC
:10038800B40DB50DB60DAD0BC2292508FF007F08C9
:10039800F30029080A128A158E230A128A11740892
:1003A80083120313BE007308BD003D08AD003E086C
:1003B800AE00AF01B0012D08B3072E0803110318D2
:1003C800013E0319E829B4072F0803110318013E59
:1003D8000319EF29B507300803110318013E031963
:1003E800F629B6072608FF007F08F3002B080A1233
:1003F8008A158E230A128A11740883120313BE0009
:100408007308BD003D08AD003E08AE00AF01B00165
:100418002D08B9072E0803110318013E0319152AE0
:10042800BA072F0803110318013E03191C2ABB073A
:10043800300803110318013E0319232ABC072708B3
:10044800FF007F08F3002A080A128A158E230A1271
:100458008A11740883120313BE007308BD003D0897
:10046800AD003E08AE00AF01B0012D08B9072E0857
:1004780003110318013E0319422ABA072F08031172
:100488000318013E0319492ABB0730080311031852
:10049800013E0319502ABC072708FF007F08F30014
:1004A8002B080A128A158E230A128A1174088312DD
:1004B8000313BE007308BD003D08AD003E08AE0042
:1004C800AF01B00108300310AD0DAE0DAF0DB00D8A
:1004D800FF3E031D672A2D08B9072E0803110318CC
:1004E800013E0319782ABA072F0803110318013EA1
:1004F80003197F2ABB07300803110318013E0319AB
:10050800862ABC073308AD003408AE003508AF00B2
:100518003608B00018300310B00CAF0CAE0CAD0CA0
:10052800FF3E031D8F2A2D08B9072E080311031853
:10053800013E0319A02ABA072F0803110318013E28
:100548000319A72ABB07300803110318013E031932
:10055800AE2ABC070830AD000310B30DB40DB50DBD
:10056800B60DAD0BB02A38083707AD00AE01AE0D99
:100578002D08823EBD002E080318013EFF3EBE0036
:10058800E22A0130AD000310B90DBA0DBB0DBC0D48
:10059800AD0BC72AB61FD12AD22AD32A3914013063
:1005A800AD000310B30DB40DB50DB60DAD0BD52AC6
:1005B800FF30BD070318BE0AFF30BE07BB1FE52A80
:1005C800E62AC52AB701B61FEA2AEB2A072BFF300D
:1005D8003305AD00FF303405AE00FF303505AF0000
:1005E8007F303605B00030082F042E042D0403197F
:1005F800FE2AFF2A022BB701B70A072B391C052B45
:10060800062B072BFF2A370803190B2B0C2B3D2B26
:100618000130B907003003180130BA070030031859
:100628000130BB07003003180130BC073C1C1D2BF0
:100638001E2B3D2B3908AD003A08AE003B08AF0031
:100648003C08B0000130B100300DB00CAF0CAE0C5E
:10065800AD0CB10B282B3008BC002F08BB002E08AE
:10066800BA002D08B9000130BD070318BE0A0030D2
:10067800BE073E08803AFF0080307F02031D462BEC
:10068800FF303D02031C492B4A2B552B7F30831228
:100698000313BC008030BB000030BA000030B90042
:1006A8008A2B831203133E08803AFF0080307F02B2
:1006B800031D602B01303D020318632B642B702B44
:1006C800003083120313BC000030BB000030BA00B6
:1006D8000030B900B2018A2B831203133D08FF00D2
:1006E8007F08B800FF30B905FF30BA057F30BB0579
:1006F8000030BC05381C812B822B832BBB17380894
:10070800AD0003102D0CFF007F08BC003208FF006D
:100718007F08BC043C08A8003B08A7003A08A600CC
:100728003908A50008008312031346088039FF0022
:100738007F08D0004608C7004707FF007F08D7009A
:10074800C51FA72BA82BA92B571457080319AD2B86
:10075800AE2BBE2B570A031DB22BB32BBB2B00307D
:10076800C6000030C5000030C4000030C300C51703
:10077800C601C62B0030C6000030C5000030C400DA
:100788000030C30042088039FF007F08D0064208C5
:10079800C7004707FF007F08D800C11FD42BD52BFF
:1007A800D62B581458080319DA2BDB2BEB2B580AD5
:1007B800031DDF2BE02BE82B0030C2000030C10006
:1007C8000030C0000030BF00C117C201F32B003059
:1007D800C2000030C1000030C0000030BF00420835
:1007E800410440043F04031DFA2BFB2B142C00305A
:1007F800C6000030C5000030C4000030C30080309F
:10080800C5047F30C6045008FF007F08C6044608A8
:10081800C2004508C1004408C0004308BF00732D4A
:100828005708031D182C192C222C0030C200003048
:10083800C1000030C0000030BF00732D5708C7004A
:10084800C8014808CA0058084702C900031CCA035F
:1008580049087F3ED1004A080318013E003ED200F5
:100868004608CF004508CE004408CD004308CC0018
:100878000030C6000030C5000030C4000030C3009E
:100888000030D6000030D5000030D4000030D3004E
:10089800D801982C58080319522C532C732C01306A
:1008A800C7000310CC0DCD0DCE0DCF0DC70B552CA9
:1008B8000130C7000310C30DC40DC50DC60DC70B0D
:1008C8005E2CD61F682C692C6A2C43140130C70093
:1008D8000310D30DD40DD50DD60DC70B6C2C4208C3
:1008E8004F02031D812C41084E02031D812C400834
:1008F8004D02031D812C3F084C02031C842C852CBF
:10090800942C56173F08CC024008031C400FCD0218
:100918004108031C410FCE024208031C420FCF02BC
:100928000130FF007F08D8071A305802031C9D2C9D
:100938009E2C4E2C4F084E044D044C040319A52C34
:10094800A62CC52C5314C52C0130C7000310C30DA9
:10095800C40DC50DC60DC70BAA2CD61FB42CB52CBB
:10096800B62C43140130C7000310D30DD40DD50D98
:10097800D60DC70BB82CFF30D1070318D20AFF30A9
:10098800D207C51FC82CC92CA82CD801D61FCD2C1E
:10099800CE2CEA2CFF305305C700FF305405C800A1
:1009A800FF305505C9007F305605CA004A0849047A
:1009B800480447040319E12CE22CE52CD801D80A95
:1009C800EA2C431CE82CE92CEA2CE22C58080319E1
:1009D800EE2CEF2C202D0130C30700300318013016
:1009E800C407003003180130C50700300318013070
:1009F800C607461C002D012D202D4308C7004408BA
:100A0800C8004508C9004608CA000130CB004A0D95
:100A1800CA0CC90CC80CC70CCB0B0B2D4A08C60056
:100A28004908C5004808C4004708C3000130D10779
:100A38000318D20A0030D2075208803AFF008030EB
:100A48007F02031D292DFF305102031C2C2D2D2D53
:100A58003B2DFF3083120313D1000030D200003049
:100A6800C6000030C5000030C4000030C300831247
:100A780003135208803AFF0080307F02031D462D81
:100A8800013051020318492D4A2D572D83120313A3
:100A9800D101D2010030C6000030C5000030C400CA
:100AA8000030C300D001831203135108FF007F08F0
:100AB800D700571C602D612D632DC517672D7F301A
:100AC800FF007F08C5055708C7000310470CFF0043
:100AD8007F08C6005008FF007F08C6040B2C0800DA
:100AE8000A128A1507230A128A110A128A15E122A4
:100AF8000A128A110F3083160313E500E50B822DC5
:100B0800852D0A128A150F240A128A1100308312C1
:100B18000313B1000030B0002530AF008030AE00C4
:100B28000A128A15F2240A128A110A128A15EB226D
:100B38000A128A11831603130710871007118312EC
:100B480003130710871407158312031307100130C6
:100B58009300831603131418B22DB32DD42D8312CA
:100B68000313130883160313E500E601E701E80100
:100B78006808F6006708F5006608F4006508F300E1
:100B880000300A128A1132270A128A11760883164F
:100B98000313B7007508B6007408B5007308B400ED
:100BA800063083160313E6002F30E500E50BDA2D37
:100BB800E60BDA2DDF2D831203130714871001309B
:100BC8009300831603131418EA2DEB2DFC2D8312C2
:100BD8000313130883160313E500E601650883125F
:100BE8000313EA0083160313660883120313EB004A
:100BF800063083160313E6002F30E500E50B022EBE
:100C0800E60B022E072E83120313871407110130F7
:100C18009300831603131418122E132E242E8312F6
:100C28000313130883160313E500E601650883120E
:100C38000313E60083160313660883120313E70001
:100C4800063083160313E6002F30E500E50B2A2E45
:100C5800E60B2A2E2F2E8312031307158316031370
:100C6800370883120313AC00831603133608831264
:100C78000313AB0083160313350883120313AA006A
:100C880083160313340883120313A9004330A80002
:100C9800FA30A7000030A6000030A5000A128A1119
:100CA80036200A128A11831203132808C60027085F
:100CB800C5002608C4002508C3004330C2007F30A1
:100CC800C1000030C0000030BF000A128A1197230B
:100CD8000A128A11831203134208DC004108DB0060
:100CE8004008DA003F08D9000A128A155F250A125F
:100CF8008A11831203135A08ED005908EC00E80121
:100D0800E9010A3083120313A3000030A4006D0820
:100D1800A6006C08A5000A128A1570240A128A1106
:100D2800831203132308FF006808633E84007F08CA
:100D3800831380000A30F3000030F4006D08F600D9
:100D48006C08F5000A128A15AC240A128A11740874
:100D580083120313ED007308EC000130E807031851
:100D6800E90A0030E9076908803AFF0080307F020D
:100D7800031DC02E03306802031CC32EC42E852E0B
:100D88000B30FF007F0883120313A7006508831642
:100D98000313E500E601650883120313A800831610
:100DA8000313660883120313A90064088316031348
:100DB800E700E801670883120313AA0083160313E8
:100DC800680883120313AB00630883160313E90052
:100DD800EA01690883120313AC00831603136A0837
:100DE80083120313AD006B08AF006A08AE006708F2
:100DF800B1006608B000B8300A128A1578260A12BF
:100E08008A1183120313A00100300A128A153F24A5
:100E18000A128A111E3083120313A0008030A10029
:100E28000A128A15E2230A128A1183120313A001F7
:100E3800A00A00300A128A153F240A128A11B83013
:100E480083120313A0000030A1000A128A15E223BE
:100E58000A128A11A82D0A128A110E288312031366
:100E6800A40024080319392F3A2F4E2FF61F3D2FBF
:100E78003E2F4E2F7309A6007409A7007509A80014
:100E88007609A900A60A0319A70A0319A80A0319CB
:100E9800A90A562F7608A9007508A8007408A700A3
:100EA8007308A6007608750474047304031D5D2F87
:100EB8005E2F672F0030F6000030F5000030F40098
:100EC8000030F300ED2F9630FF007F08A500792F42
:100ED8000130FF007F08A50701300310A90CA80CFA
:100EE800A70CA60CFF3E031D712FFE302905031D1C
:100EF8007E2F7F2F6C2F9B2F0130FF007F08A507C7
:100F08000130A607003003180130A7070030031886
:100F18000130A807003003180130A9070130031079
:100F2800A90CA80CA70CA60CFF3E031D932FFF309D
:100F38002905031DA02FA12F802FAD2F0130A50259
:100F48000130A0000310A60DA70DA80DA90DA00B38
:100F5800A62FA81BB02FB12FB72F023025020318D8
:100F6800B62FB72FA22F2518BA2FBB2FC32FFF30AC
:100F7800A605FF30A7057F30A805FF30A905031097
:100F8800A50C2508A000A101A201A3011830031097
:100F9800A00DA10DA20DA30DFF3E031DCB2F200810
:100FA800A6042108A7042208A8042308A9042408E1
:100FB8000319DF2FE02FE52FF61FE32FE42FE52F8E
:100FC800A9172908F6002808F5002708F4002608BC
:100FD800F3000800F400F3013A3074020318F52F07
:100FE800F62FFE2F30307402031CFB2FFC2FFE2F30
:100FF800F301F30A730C0800FF1B0A2883137F18F8
:1010080083170008840A0319FF0A080008308A00B9
:101018000408840A82070034013400340A34003496
:1010280064340034E8340334103427342534693404
:101038002E34253469342534693456342034253423
:101048003334693420342534333469340D340A3464
:1010580000342034533431342034203420342034C4
:10106800533432342034203420342034533433344D
:0410780020340034EC
:1015B20064008001840A0406031900340406DA2A4E
:1015C2008B170B17831603138C160C168312031337
:1015D2008C1208008316031387118712203083129E
:1015E200031394008316031394010800F40083127A
:1015F20003138801080874048800730C031C091083
:101602000318091409118914891008008316031795
:1016120088018901831603138501890186018801E6
:101622008312031385018601880189010800F700EE
:101632000D30F600FB30F500F50B1D2BF60B1D2BC4
:10164200222BF30177080A128A15F7220A128A1549
:101652000800F7000D30F600FB30F500F50B2F2BDC
:10166200F60B2F2B342BF301F30A77080A128A1593
:10167200F7220A128A1508007E088A007F08820073
:101682000A128A153D230A128A158000840A040868
:101692007D0603190034FF0A0319FE0A412B6E343A
:1016A2006F3478346434003400340034003400344D
:1016B2000034003400340034003400340034003488
:1016C2000034003400340034003400340034003478
:1016D200831203130C1E6E2B6F2B852B7808B83EDA
:1016E2008400831300089900103078067904031DE2
:1016F2007B2B7C2B7F2BF801F901852B0130F8071E
:101702000318F90A0030F90772088A007108840088
:10171200700E8300FE0E7E0E090083120313A400D6
:10172200A001A1017308F500F6017508A200760870
:10173200A300241C9D2B9E2BA42B2208A007031878
:10174200A10A2308A10701300310A20DA30DFF3E39
:10175200031DA52B0310A40C2408031DB12BB22BCF
:101762009A2B2108F4002008F300080083120313C7
:10177200A001A101731CBE2BBF2BC72B75088312BE
:101782000313A0070318A10A7608A107013003106A
:10179200F50DF60DFF3E031DC82B01300310F40CAE
:1017A200F30CFF3E031DCF2B73087404031DDA2BC9
:1017B200DB2BBB2B831203132108F4002008F30058
:1017C200080083120313A201FD2B220820078400C4
:1017D20021080318210AFF000A128A1500200A12A2
:1017E2008A150A128A152A230A128A150130FF0065
:1017F2007F0883120313A20722082007840021080E
:101802000318210AFF000A128A1500200A128A15FB
:10181200003A031D0D2C0E2CE62B08008312031335
:101822008801831603138801273083120313A10052
:10183200F430A000A00B1B2CA10B1B2C000032309B
:101842000A128A1518230A128A1538300A128A15C2
:1018520018230A128A150C300A128A1518230A1242
:101862008A1501300A128A1518230A128A150630BF
:101872000A128A1518230A128A1508008312031302
:10188200A500023020020318472C482C6F2C103080
:101892002502031C4D2C4E2C4F2C6F2C20030319B8
:1018A200532C542C5A2C80302504A3000030A40061
:1018B2005F2CC0302504A3000030A40023080A12C4
:1018C2008A1518230A128A150D3083120313A200F7
:1018D200FB30A100A10B6B2CA20B6B2C0800831216
:1018E2000313230824040319772C782CA72CF7015F
:1018F200F70A862C01300310A30DA40DFF3E031D31
:101902007C2C0130FF007F08F707A41F892C8A2C4A
:101912007B2C24082602031D902C23082502031C7D
:10192200932C942C9A2C2308A5022408031CA603AA
:10193200A60201300310A40CA30CFF3E031D9B2C36
:101942000130F702031DA62CA72C8A2C2608A4001E
:101952002508A300080083120313A101A201730842
:1019620074040319B52CB62CED2CA001A00AC42CCA
:1019720001300310F30DF40DFF3E031DBA2C0130AC
:10198200FF007F08A007F41FC72CC82CB92C013018
:101992000310A10DA20DFF3E031DC92C740876028F
:1019A200031DD52C73087502031CD82CD92CE02CEE
:1019B2007308F5027408031CF603F60221140130C1
:1019C2000310F40CF30CFF3E031DE12C0130A002C6
:1019D200031DEC2CED2CC82C2208F4002108F30086
:1019E200080020308316031398008316031787110B
:1019F20090308312031398002E08B2002F08B30010
:101A02003008B4003108B50006300310B20DB30D32
:101A1200B40DB50DFF3E031D062D3508A300340895
:101A2200A2003308A1003208A0002E08B6002F0839
:101A3200B7003008B8003108B90006300310B60DFF
:101A4200B70DB80DB90DFF3E031D1F2D0030BA00B2
:101A52001230BB007A30BC000030BD003608BA023A
:101A62003708031C370F362D372DBB023808031CED
:101A7200380F3C2D3D2DBC023908031C390F422D75
:101A8200432DBD023D08A7003C08A6003B08A50067
:101A92003A08A4000A128A15DB250A128A15831253
:101AA20003132308F7002208F6002108F500200896
:101AB200F4007408831603139900080003108312BC
:101AC20003135B0D5C0DFF007F08E2006208031D3B
:101AD2006B2D6C2D752D0030DC000030DB000030EA
:101AE200DA000030D900DA2D5908DD005A08DE008C
:101AF2005B08DF005C08E0001F300310E00CDF0C25
:101B0200DE0CDD0CFF3E031D7E2D5D08FF007F080D
:101B1200E100DB17FF30D905FF30DA05FF30DB05C6
:101B22000030DC059630E202E21F982D992DB32D8C
:101B32006208803A973E03189F2DA02DA12D6C2D8F
:101B420001300310DC0CDB0CDA0CD90CFF3E031D58
:101B5200A22D0130FF007F08E207031DB12DB22D37
:101B6200A12DCA2D20306202031CB82DB92DC52D1E
:101B72006C2D0130DD000310D90DDA0DDB0DDC0D0B
:101B8200DD0BBC2D0130E2026208031DC92DCA2DF6
:101B9200BA2D61080319CE2DCF2DDA2DD909DA0914
:101BA200DB09DC09D90A0319DA0A0319DB0A03196A
:101BB200DC0A080083120313A901A31FE12DE22D01
:101BC200EF2DA009A109A209A309A00A0319A10ADC
:101BD2000319A20A0319A30AA901A90AA71FF22D30
:101BE200F32D022EA409A509A609A709A40A03191F
:101BF200A50A0319A60A0319A70A0130FF007F08E4
:101C0200A9060030AD000030AC000030AB0000305F
:101C1200AA0023082204210420040319112E122EE3
:101C22005F2EA801A80A222E0130F3000310A00D96
:101C3200A10DA20DA30DF30B172E0130FF007F089B
:101C4200A807A31F252E262E152E0130F300031000
:101C5200AA0DAB0DAC0DAD0DF30B282E23082702F8
:101C6200031D3D2E22082602031D3D2E21082502BA
:101C7200031D3D2E20082402031C402E412E502E0F
:101C82002008A4022108031C210FA5022208031C1C
:101C9200220FA6022308031C230FA7022A140130D5
:101CA2000310A30CA20CA10CA00CFF3E031D512E8D
:101CB2000130A802031D5E2E5F2E262E290803196D
:101CC200632E642E6F2EAA09AB09AC09AD09AA0ACC
:101CD2000319AB0A0319AC0A0319AD0A2D08A300B4
:101CE2002C08A2002B08A1002A08A00008008312D9
:101CF2000313BA002830FF007F08B500E92F253012
:101D02003D060319852E862E922E3D08FF003A08C5
:101D120084007F08831380000130FF007F08BA0728
:101D2200E92FBB01BC01B701270884000A128A15FA
:101D32000A200A128A150A128A11EE270A128A1535
:101D4200031CA42EA52EE52E83120313BB01BC0196
:101D52000A30F3000030F400831203133C08F6004B
:101D62003B08F5000A128A15B7230A128A1574086D
:101D720083120313BC007308BB00270884000A12F5
:101D82008A150A200A128A15D03EB200FF300318C3
:101D92000030B3003208BB070318BC0A3308BC0783
:101DA2000130FF007F08A707270884000A128A155E
:101DB2000A200A128A150A128A11EE270A128A15B5
:101DC2000318E42EE52EA92E013083120313A70770
:101DD200FF30270784000A128A150A200A128A1580
:101DE200BD00B200B3013308003A0319F92EE92FFE
:101DF2003208003A0319FB2F643A0319042F0D3AF3
:101E02000319042FE92F3508840083130008B80052
:101E1200840A0008B9000230FF007F08B507B91F25
:101E2200132F142F1D2F0330FF007F08B704B809AA
:101E3200B909B80A0319B90ABD01BD0A3D08B200C1
:101E42003207013E84000A128A150A200A128A15F4
:101E5200B3000A128A150A200A128A15B40034083D
:101E62003902031D362F330838020318392F3A2F4F
:101E72003B2F452F0130FF007F08BD0705303D068F
:101E8200031D442F452F1F2F3B083C0403194A2FE3
:101E92004B2F572F370803390319502F512F572F24
:101EA200FF30BB070318BC0AFF30BC073C08803A6E
:101EB200803C031D5E2F3B083D020318612F622FF9
:101EC2006E2F831203133D08B200B3013208BB0226
:101ED2003308031CBC03BC02722F83120313BB0121
:101EE200BC013B083C040319772F782F8F2F203039
:101EF200FF003A0884007F08831380000130FF004E
:101F02007F08BA07FF30BB070318BC0AFF30BC07C3
:101F12003B083C04031D8E2F8F2F782F370803397F
:101F22000319942F952FA02F2D30FF003A0884001B
:101F32007F08831380000130FF007F08BA073D0845
:101F4200FF007F08B600E02F0A30A3000030A40093
:101F52003608B2003207013E84000A128A150A20AE
:101F62000A128A15F3000A128A150A200A128A1521
:101F7200F4003908F6003808F5000A128A15AC2474
:101F82000A128A15740883120313A6007308A500A7
:101F92000A128A1570240A128A158312031323085F
:101FA200303EFF007F08BD003D08FF003A08840074
:101FB2007F08831380000130FF007F08BA07FF30DB
:101FC200FF007F08B607360A031DE82FE92FA52F69
:101FD2000130A707FF30270784000A128A150A205A
:101FE2000A128A15FF007F08BD003D08031DFA2F63
:0E1FF200FB2F802E3A08840083138001080024
:04400E00D723FF3F76
:00000001FF
