:020000040000FA
:060000000A128A1110280B
:10000800FE00030EF2000A08F300831203137F08B0
:10001800F4000A128A111A280A128A111328F50103
:10002800F601F70183010A128A1172280B1C1D2898
:100038001E282E28861C2128222825280130F70270
:100048002D28061C282829282D280130FF007F0884
:10005800F7070B108C1D3128322845288316031307
:10006800141C372838284128831203131308F0007A
:10007800F1017008F5007108F60077088312930003
:100088008C117408FF0073088A00720E8300FE0E3C
:100098007E0E09008316031788018901831603134E
:1000A8008501831203138501033083160313860029
:1000B8008312031386018316031388018312031323
:1000C8008801831603138901831203138901831698
:1000D8000313870183120313870108000A128A1188
:1000E8004E200A128A110A128A1189200A128A11CC
:1000F8000A128A119C200A128A11770883120313A4
:10010800880081280A128A1110288316031387157C
:100118008712851624308312031394008316031361
:100128009401831203138C11831603138C15080092
:100138008B178B150B100B178316031316149614B5
:020148000800AD
:04400E00D723FF3F76
:00000001FF
